{
  "_format": "hh-sol-artifact-1",
  "contractName": "NumberGame",
  "sourceName": "contracts/NumberGame.sol",
  "abi": [
    {
      "inputs": [
        {
          "internalType": "uint256",
          "name": "_defaultMinBet",
          "type": "uint256"
        }
      ],
      "stateMutability": "payable",
      "type": "constructor"
    },
    {
      "inputs": [],
      "name": "currentPlayer",
      "outputs": [
        {
          "internalType": "address",
          "name": "",
          "type": "address"
        }
      ],
      "stateMutability": "view",
      "type": "function"
    },
    {
      "inputs": [],
      "name": "currentState",
      "outputs": [
        {
          "internalType": "enum NumberGame.GameState",
          "name": "",
          "type": "uint8"
        }
      ],
      "stateMutability": "view",
      "type": "function"
    },
    {
      "inputs": [],
      "name": "defaultMinBet",
      "outputs": [
        {
          "internalType": "uint256",
          "name": "",
          "type": "uint256"
        }
      ],
      "stateMutability": "view",
      "type": "function"
    },
    {
      "inputs": [
        {
          "internalType": "uint256",
          "name": "p1Guess",
          "type": "uint256"
        },
        {
          "internalType": "uint256",
          "name": "p2Guess",
          "type": "uint256"
        }
      ],
      "name": "finalizeGame",
      "outputs": [],
      "stateMutability": "nonpayable",
      "type": "function"
    },
    {
      "inputs": [],
      "name": "gameEnded",
      "outputs": [
        {
          "internalType": "bool",
          "name": "",
          "type": "bool"
        }
      ],
      "stateMutability": "view",
      "type": "function"
    },
    {
      "inputs": [],
      "name": "getTargetNumber",
      "outputs": [
        {
          "internalType": "uint256",
          "name": "",
          "type": "uint256"
        }
      ],
      "stateMutability": "view",
      "type": "function"
    },
    {
      "inputs": [],
      "name": "joinGame",
      "outputs": [],
      "stateMutability": "payable",
      "type": "function"
    },
    {
      "inputs": [
        {
          "internalType": "uint256",
          "name": "guessNumber",
          "type": "uint256"
        }
      ],
      "name": "makeGuess",
      "outputs": [],
      "stateMutability": "payable",
      "type": "function"
    },
    {
      "inputs": [],
      "name": "minimumBet",
      "outputs": [
        {
          "internalType": "uint256",
          "name": "",
          "type": "uint256"
        }
      ],
      "stateMutability": "view",
      "type": "function"
    },
    {
      "inputs": [],
      "name": "owner",
      "outputs": [
        {
          "internalType": "address payable",
          "name": "",
          "type": "address"
        }
      ],
      "stateMutability": "view",
      "type": "function"
    },
    {
      "inputs": [],
      "name": "p1BetStatus",
      "outputs": [
        {
          "internalType": "bool",
          "name": "",
          "type": "bool"
        }
      ],
      "stateMutability": "view",
      "type": "function"
    },
    {
      "inputs": [],
      "name": "p2BetStatus",
      "outputs": [
        {
          "internalType": "bool",
          "name": "",
          "type": "bool"
        }
      ],
      "stateMutability": "view",
      "type": "function"
    },
    {
      "inputs": [],
      "name": "player1",
      "outputs": [
        {
          "internalType": "address payable",
          "name": "",
          "type": "address"
        }
      ],
      "stateMutability": "view",
      "type": "function"
    },
    {
      "inputs": [],
      "name": "player1Bet",
      "outputs": [
        {
          "internalType": "uint256",
          "name": "",
          "type": "uint256"
        }
      ],
      "stateMutability": "view",
      "type": "function"
    },
    {
      "inputs": [],
      "name": "player2",
      "outputs": [
        {
          "internalType": "address payable",
          "name": "",
          "type": "address"
        }
      ],
      "stateMutability": "view",
      "type": "function"
    },
    {
      "inputs": [],
      "name": "player2Bet",
      "outputs": [
        {
          "internalType": "uint256",
          "name": "",
          "type": "uint256"
        }
      ],
      "stateMutability": "view",
      "type": "function"
    },
    {
      "inputs": [
        {
          "internalType": "uint256",
          "name": "newMinimumBet",
          "type": "uint256"
        }
      ],
      "name": "setMinimumBet",
      "outputs": [],
      "stateMutability": "nonpayable",
      "type": "function"
    },
    {
      "inputs": [
        {
          "internalType": "uint256",
          "name": "newTargetNumber",
          "type": "uint256"
        }
      ],
      "name": "setTargetNumber",
      "outputs": [],
      "stateMutability": "nonpayable",
      "type": "function"
    },
    {
      "inputs": [],
      "name": "withdraw",
      "outputs": [],
      "stateMutability": "nonpayable",
      "type": "function"
    }
  ],
  "bytecode": "0x608060405260405162002d3138038062002d31833981810160405281019062000029919062000236565b33600060016101000a81548173ffffffffffffffffffffffffffffffffffffffff021916908373ffffffffffffffffffffffffffffffffffffffff1602179055506200007a6200008860201b60201c565b806006819055505062000469565b600060019054906101000a900473ffffffffffffffffffffffffffffffffffffffff1673ffffffffffffffffffffffffffffffffffffffff163373ffffffffffffffffffffffffffffffffffffffff161480620001325750600160009054906101000a900473ffffffffffffffffffffffffffffffffffffffff1673ffffffffffffffffffffffffffffffffffffffff163373ffffffffffffffffffffffffffffffffffffffff16145b806200018b5750600260009054906101000a900473ffffffffffffffffffffffffffffffffffffffff1673ffffffffffffffffffffffffffffffffffffffff163373ffffffffffffffffffffffffffffffffffffffff16145b620001cd576040517f08c379a0000000000000000000000000000000000000000000000000000000008152600401620001c49062000315565b60405180910390fd5b6001600a4244604051602001620001e6929190620002e5565b6040516020818303038152906040528051906020012060001c6200020b9190620003b9565b62000217919062000348565b600781905550565b60008151905062000230816200044f565b92915050565b6000602082840312156200024957600080fd5b600062000259848285016200021f565b91505092915050565b600062000271602d8362000337565b91507f4f6e6c7920746865206f776e65722063616e2067656e6572617465207468652060008301527f746172676574206e756d626572000000000000000000000000000000000000006020830152604082019050919050565b620002df620002d982620003a5565b620003af565b82525050565b6000620002f38285620002ca565b602082019150620003058284620002ca565b6020820191508190509392505050565b60006020820190508181036000830152620003308162000262565b9050919050565b600082825260208201905092915050565b60006200035582620003a5565b91506200036283620003a5565b9250827fffffffffffffffffffffffffffffffffffffffffffffffffffffffffffffffff038211156200039a5762000399620003f1565b5b828201905092915050565b6000819050919050565b6000819050919050565b6000620003c682620003a5565b9150620003d383620003a5565b925082620003e657620003e562000420565b5b828206905092915050565b7f4e487b7100000000000000000000000000000000000000000000000000000000600052601160045260246000fd5b7f4e487b7100000000000000000000000000000000000000000000000000000000600052601260045260246000fd5b6200045a81620003a5565b81146200046657600080fd5b50565b6128b880620004796000396000f3fe6080604052600436106101145760003560e01c80638772ae3c116100a0578063c38a8afd11610064578063c38a8afd1461034c578063d30895e414610377578063d4f77b1c146103a2578063d9f8fd12146103ac578063dac8102f146103d757610114565b80638772ae3c146102795780638da5cb5b146102a257806396e14908146102cd578063b22e1d77146102f8578063c12a19f41461032357610114565b80632f6fe396116100e75780632f6fe396146101b65780633ccfd60b146101e15780633fb809a2146101f85780634404a4381461022357806359a5f12d1461024e57610114565b80630c3f6acf1461011957806311289fba14610144578063135340d51461016f57806322666da61461019a575b600080fd5b34801561012557600080fd5b5061012e610400565b60405161013b91906123c8565b60405180910390f35b34801561015057600080fd5b50610159610411565b6040516101669190612603565b60405180910390f35b34801561017b57600080fd5b50610184610417565b60405161019191906123ad565b60405180910390f35b6101b460048036038101906101af9190611d14565b61042a565b005b3480156101c257600080fd5b506101cb610a77565b6040516101d891906123ad565b60405180910390f35b3480156101ed57600080fd5b506101f6610a8a565b005b34801561020457600080fd5b5061020d610ee6565b60405161021a91906123ad565b60405180910390f35b34801561022f57600080fd5b50610238610ef9565b6040516102459190612377565b60405180910390f35b34801561025a57600080fd5b50610263610f1f565b6040516102709190612392565b60405180910390f35b34801561028557600080fd5b506102a0600480360381019061029b9190611d14565b610f45565b005b3480156102ae57600080fd5b506102b7610fe6565b6040516102c49190612392565b60405180910390f35b3480156102d957600080fd5b506102e261100c565b6040516102ef9190612603565b60405180910390f35b34801561030457600080fd5b5061030d611012565b60405161031a9190612603565b60405180910390f35b34801561032f57600080fd5b5061034a60048036038101906103459190611d14565b6110ab565b005b34801561035857600080fd5b50610361611195565b60405161036e9190612603565b60405180910390f35b34801561038357600080fd5b5061038c61119b565b6040516103999190612392565b60405180910390f35b6103aa6111c1565b005b3480156103b857600080fd5b506103c1611634565b6040516103ce9190612603565b60405180910390f35b3480156103e357600080fd5b506103fe60048036038101906103f99190611d3d565b61163a565b005b60008054906101000a900460ff1681565b60035481565b600a60019054906101000a900460ff1681565b60006002811115610464577f4e487b7100000000000000000000000000000000000000000000000000000000600052602160045260246000fd5b60008054906101000a900460ff1660028111156104aa577f4e487b7100000000000000000000000000000000000000000000000000000000600052602160045260246000fd5b146104ea576040517f08c379a00000000000000000000000000000000000000000000000000000000081526004016104e190612583565b60405180910390fd5b6000811180156104fb5750600a8111155b61053a576040517f08c379a000000000000000000000000000000000000000000000000000000000815260040161053190612483565b60405180910390fd5b600a60029054906101000a900460ff161561058a576040517f08c379a0000000000000000000000000000000000000000000000000000000008152600401610581906124a3565b60405180910390fd5b600160009054906101000a900473ffffffffffffffffffffffffffffffffffffffff1673ffffffffffffffffffffffffffffffffffffffff163373ffffffffffffffffffffffffffffffffffffffff1614806106335750600260009054906101000a900473ffffffffffffffffffffffffffffffffffffffff1673ffffffffffffffffffffffffffffffffffffffff163373ffffffffffffffffffffffffffffffffffffffff16145b610672576040517f08c379a000000000000000000000000000000000000000000000000000000000815260040161066990612423565b60405180910390fd5b6006543410156106b7576040517f08c379a00000000000000000000000000000000000000000000000000000000081526004016106ae906125e3565b60405180910390fd5b6005543410156106fc576040517f08c379a00000000000000000000000000000000000000000000000000000000081526004016106f390612403565b60405180910390fd5b600160009054906101000a900473ffffffffffffffffffffffffffffffffffffffff1673ffffffffffffffffffffffffffffffffffffffff163373ffffffffffffffffffffffffffffffffffffffff1614156108295760001515600a60009054906101000a900460ff161515146107a8576040517f08c379a000000000000000000000000000000000000000000000000000000000815260040161079f906125c3565b60405180910390fd5b33600160006101000a81548173ffffffffffffffffffffffffffffffffffffffff021916908373ffffffffffffffffffffffffffffffffffffffff16021790555034600360008282546107fb919061262f565b92505081905550806008819055506001600a60006101000a81548160ff021916908315150217905550610953565b600260009054906101000a900473ffffffffffffffffffffffffffffffffffffffff1673ffffffffffffffffffffffffffffffffffffffff163373ffffffffffffffffffffffffffffffffffffffff1614156109525760001515600a60019054906101000a900460ff161515146108d5576040517f08c379a00000000000000000000000000000000000000000000000000000000081526004016108cc906125c3565b60405180910390fd5b33600260006101000a81548173ffffffffffffffffffffffffffffffffffffffff021916908373ffffffffffffffffffffffffffffffffffffffff1602179055503460046000828254610928919061262f565b92505081905550806009819055506001600a60016101000a81548160ff0219169083151502179055505b5b60011515600a60009054906101000a900460ff161515148015610989575060011515600a60019054906101000a900460ff161515145b156109df5760016000806101000a81548160ff021916908360028111156109d9577f4e487b7100000000000000000000000000000000000000000000000000000000600052602160045260246000fd5b02179055505b60016002811115610a19577f4e487b7100000000000000000000000000000000000000000000000000000000600052602160045260246000fd5b60008054906101000a900460ff166002811115610a5f577f4e487b7100000000000000000000000000000000000000000000000000000000600052602160045260246000fd5b1415610a7457610a7360085460095461163a565b5b50565b600a60029054906101000a900460ff1681565b600160009054906101000a900473ffffffffffffffffffffffffffffffffffffffff1673ffffffffffffffffffffffffffffffffffffffff163373ffffffffffffffffffffffffffffffffffffffff161480610b335750600260009054906101000a900473ffffffffffffffffffffffffffffffffffffffff1673ffffffffffffffffffffffffffffffffffffffff163373ffffffffffffffffffffffffffffffffffffffff16145b610b72576040517f08c379a0000000000000000000000000000000000000000000000000000000008152600401610b6990612423565b60405180910390fd5b600160009054906101000a900473ffffffffffffffffffffffffffffffffffffffff1673ffffffffffffffffffffffffffffffffffffffff163373ffffffffffffffffffffffffffffffffffffffff161415610d2b5760001515600a60009054906101000a900460ff16151514610c1e576040517f08c379a0000000000000000000000000000000000000000000000000000000008152600401610c1590612523565b60405180910390fd5b60006002600354610c2f9190612685565b9050600554811015610c76576040517f08c379a0000000000000000000000000000000000000000000000000000000008152600401610c6d906125a3565b60405180910390fd5b600160009054906101000a900473ffffffffffffffffffffffffffffffffffffffff1673ffffffffffffffffffffffffffffffffffffffff166108fc829081150290604051600060405180830381858888f19350505050158015610cde573d6000803e3d6000fd5b506000600160006101000a81548173ffffffffffffffffffffffffffffffffffffffff021916908373ffffffffffffffffffffffffffffffffffffffff1602179055506000600381905550505b600260009054906101000a900473ffffffffffffffffffffffffffffffffffffffff1673ffffffffffffffffffffffffffffffffffffffff163373ffffffffffffffffffffffffffffffffffffffff161415610ee45760001515600a60019054906101000a900460ff16151514610dd7576040517f08c379a0000000000000000000000000000000000000000000000000000000008152600401610dce90612523565b60405180910390fd5b60006002600454610de89190612685565b9050600554811015610e2f576040517f08c379a0000000000000000000000000000000000000000000000000000000008152600401610e26906125a3565b60405180910390fd5b600260009054906101000a900473ffffffffffffffffffffffffffffffffffffffff1673ffffffffffffffffffffffffffffffffffffffff166108fc829081150290604051600060405180830381858888f19350505050158015610e97573d6000803e3d6000fd5b506000600260006101000a81548173ffffffffffffffffffffffffffffffffffffffff021916908373ffffffffffffffffffffffffffffffffffffffff1602179055506000600481905550505b565b600a60009054906101000a900460ff1681565b600a60039054906101000a900473ffffffffffffffffffffffffffffffffffffffff1681565b600260009054906101000a900473ffffffffffffffffffffffffffffffffffffffff1681565b600060019054906101000a900473ffffffffffffffffffffffffffffffffffffffff1673ffffffffffffffffffffffffffffffffffffffff163373ffffffffffffffffffffffffffffffffffffffff1614610fd5576040517f08c379a0000000000000000000000000000000000000000000000000000000008152600401610fcc906124e3565b60405180910390fd5b806006819055508060058190555050565b600060019054906101000a900473ffffffffffffffffffffffffffffffffffffffff1681565b60065481565b60008060019054906101000a900473ffffffffffffffffffffffffffffffffffffffff1673ffffffffffffffffffffffffffffffffffffffff163373ffffffffffffffffffffffffffffffffffffffff16146110a3576040517f08c379a000000000000000000000000000000000000000000000000000000000815260040161109a90612543565b60405180910390fd5b600754905090565b6000811180156110bc5750600a8111155b6110fb576040517f08c379a00000000000000000000000000000000000000000000000000000000081526004016110f290612483565b60405180910390fd5b600060019054906101000a900473ffffffffffffffffffffffffffffffffffffffff1673ffffffffffffffffffffffffffffffffffffffff163373ffffffffffffffffffffffffffffffffffffffff161461118b576040517f08c379a0000000000000000000000000000000000000000000000000000000008152600401611182906124c3565b60405180910390fd5b8060078190555050565b60055481565b600160009054906101000a900473ffffffffffffffffffffffffffffffffffffffff1681565b600073ffffffffffffffffffffffffffffffffffffffff16600160009054906101000a900473ffffffffffffffffffffffffffffffffffffffff1673ffffffffffffffffffffffffffffffffffffffff16148061126c5750600073ffffffffffffffffffffffffffffffffffffffff16600260009054906101000a900473ffffffffffffffffffffffffffffffffffffffff1673ffffffffffffffffffffffffffffffffffffffff16145b6112ab576040517f08c379a00000000000000000000000000000000000000000000000000000000081526004016112a290612443565b60405180910390fd5b600160009054906101000a900473ffffffffffffffffffffffffffffffffffffffff1673ffffffffffffffffffffffffffffffffffffffff163373ffffffffffffffffffffffffffffffffffffffff16141561133c576040517f08c379a000000000000000000000000000000000000000000000000000000000815260040161133390612503565b60405180910390fd5b600060019054906101000a900473ffffffffffffffffffffffffffffffffffffffff1673ffffffffffffffffffffffffffffffffffffffff163373ffffffffffffffffffffffffffffffffffffffff1614156113cd576040517f08c379a00000000000000000000000000000000000000000000000000000000081526004016113c490612563565b60405180910390fd5b600654341015611412576040517f08c379a0000000000000000000000000000000000000000000000000000000008152600401611409906125e3565b60405180910390fd5b600073ffffffffffffffffffffffffffffffffffffffff16600160009054906101000a900473ffffffffffffffffffffffffffffffffffffffff1673ffffffffffffffffffffffffffffffffffffffff16141561151f5733600160006101000a81548173ffffffffffffffffffffffffffffffffffffffff021916908373ffffffffffffffffffffffffffffffffffffffff1602179055503460058190555034600360008282546114c3919061262f565b9250508190555060008060006101000a81548160ff02191690836002811115611515577f4e487b7100000000000000000000000000000000000000000000000000000000600052602160045260246000fd5b0217905550611617565b600073ffffffffffffffffffffffffffffffffffffffff16600260009054906101000a900473ffffffffffffffffffffffffffffffffffffffff1673ffffffffffffffffffffffffffffffffffffffff161415611616576005543410156115bb576040517f08c379a00000000000000000000000000000000000000000000000000000000081526004016115b290612463565b60405180910390fd5b33600260006101000a81548173ffffffffffffffffffffffffffffffffffffffff021916908373ffffffffffffffffffffffffffffffffffffffff160217905550346004600082825461160e919061262f565b925050819055505b5b6000600a60026101000a81548160ff021916908315150217905550565b60045481565b600a60029054906101000a900460ff161561168a576040517f08c379a0000000000000000000000000000000000000000000000000000000008152600401611681906124a3565b60405180910390fd5b60008211801561169b5750600a8211155b6116da576040517f08c379a00000000000000000000000000000000000000000000000000000000081526004016116d190612483565b60405180910390fd5b6000811180156116eb5750600a8111155b61172a576040517f08c379a000000000000000000000000000000000000000000000000000000000815260040161172190612483565b60405180910390fd5b6007548214801561173c575060075481145b1561188c576001600a60026101000a81548160ff021916908315150217905550600060045460035461176e919061262f565b90506000816003544761178191906126b6565b61178b9190612685565b90506000826004544761179e91906126b6565b6117a89190612685565b9050600160009054906101000a900473ffffffffffffffffffffffffffffffffffffffff1673ffffffffffffffffffffffffffffffffffffffff166108fc839081150290604051600060405180830381858888f19350505050158015611812573d6000803e3d6000fd5b50600260009054906101000a900473ffffffffffffffffffffffffffffffffffffffff1673ffffffffffffffffffffffffffffffffffffffff166108fc829081150290604051600060405180830381858888f1935050505015801561187b573d6000803e3d6000fd5b50611884611a4c565b505050611a48565b600754821415611927576001600a60026101000a81548160ff021916908315150217905550600160009054906101000a900473ffffffffffffffffffffffffffffffffffffffff1673ffffffffffffffffffffffffffffffffffffffff166108fc479081150290604051600060405180830381858888f19350505050158015611919573d6000803e3d6000fd5b50611922611a4c565b611a47565b6007548114156119c2576001600a60026101000a81548160ff021916908315150217905550600260009054906101000a900473ffffffffffffffffffffffffffffffffffffffff1673ffffffffffffffffffffffffffffffffffffffff166108fc479081150290604051600060405180830381858888f193505050501580156119b4573d6000803e3d6000fd5b506119bd611a4c565b611a46565b60008060006101000a81548160ff02191690836002811115611a0d577f4e487b7100000000000000000000000000000000000000000000000000000000600052602160045260246000fd5b02179055506000600a60016101000a81548160ff0219169083151502179055600a60006101000a81548160ff0219169083151502179055505b5b5b5050565b611a54611b73565b6000600160006101000a81548173ffffffffffffffffffffffffffffffffffffffff021916908373ffffffffffffffffffffffffffffffffffffffff1602179055506000600260006101000a81548173ffffffffffffffffffffffffffffffffffffffff021916908373ffffffffffffffffffffffffffffffffffffffff1602179055506000600a60016101000a81548160ff0219169083151502179055600a60006101000a81548160ff0219169083151502179055506000600481905560038190555060065460058190555060026000806101000a81548160ff02191690836002811115611b6c577f4e487b7100000000000000000000000000000000000000000000000000000000600052602160045260246000fd5b0217905550565b600060019054906101000a900473ffffffffffffffffffffffffffffffffffffffff1673ffffffffffffffffffffffffffffffffffffffff163373ffffffffffffffffffffffffffffffffffffffff161480611c1c5750600160009054906101000a900473ffffffffffffffffffffffffffffffffffffffff1673ffffffffffffffffffffffffffffffffffffffff163373ffffffffffffffffffffffffffffffffffffffff16145b80611c745750600260009054906101000a900473ffffffffffffffffffffffffffffffffffffffff1673ffffffffffffffffffffffffffffffffffffffff163373ffffffffffffffffffffffffffffffffffffffff16145b611cb3576040517f08c379a0000000000000000000000000000000000000000000000000000000008152600401611caa906123e3565b60405180910390fd5b6001600a4244604051602001611cca92919061234b565b6040516020818303038152906040528051906020012060001c611ced9190612799565b611cf7919061262f565b600781905550565b600081359050611d0e8161286b565b92915050565b600060208284031215611d2657600080fd5b6000611d3484828501611cff565b91505092915050565b60008060408385031215611d5057600080fd5b6000611d5e85828601611cff565b9250506020611d6f85828601611cff565b9150509250929050565b611d8281612722565b82525050565b611d9181612710565b82525050565b611da081612734565b82525050565b611daf8161277d565b82525050565b6000611dc2602d8361261e565b91507f4f6e6c7920746865206f776e65722063616e2067656e6572617465207468652060008301527f746172676574206e756d626572000000000000000000000000000000000000006020830152604082019050919050565b6000611e2860448361261e565b91507f506c656173652073656e64206574686572207769746820796f7572206775657360008301527f7320657175616c206f7220686967686572207468616e2074686520656e74727960208301527f20666565000000000000000000000000000000000000000000000000000000006040830152606082019050919050565b6000611eb4600c8361261e565b91507f4e6f74206120706c6179657200000000000000000000000000000000000000006000830152602082019050919050565b6000611ef460148361261e565b91507f47616d6520697320616c72656164792066756c6c0000000000000000000000006000830152602082019050919050565b6000611f34602b8361261e565b91507f546865206574686572206e656564656420746f206a6f696e206e65656473207460008301527f6f206265206869676865720000000000000000000000000000000000000000006020830152604082019050919050565b6000611f9a601e8361261e565b91507f4775657373206d757374206265206265747765656e203120616e6420313000006000830152602082019050919050565b6000611fda60168361261e565b91507f47616d652068617320616c726561647920656e646564000000000000000000006000830152602082019050919050565b600061201a60288361261e565b91507f4f6e6c7920746865206f776e65722063616e207365742074686520746172676560008301527f74206e756d6265720000000000000000000000000000000000000000000000006020830152604082019050919050565b600061208060268361261e565b91507f4f6e6c7920746865206f776e65722063616e2073657420746865206d696e696d60008301527f756d2062657400000000000000000000000000000000000000000000000000006020830152604082019050919050565b60006120e660208361261e565b91507f796f75206861766520616c7265616479206a6f696e6564207468652067616d656000830152602082019050919050565b600061212660128361261e565b91507f41206775657373206973206f6e676f696e6700000000000000000000000000006000830152602082019050919050565b600061216660298361261e565b91507f4f6e6c7920746865206f776e65722063616e207669657720746865207461726760008301527f6574206e756d62657200000000000000000000000000000000000000000000006020830152604082019050919050565b60006121cc601a8361261e565b91507f4f776e65722063616e6e6f74206a6f696e207468652067616d650000000000006000830152602082019050919050565b600061220c601c8361261e565b91507f426f746820706c61796572206861766520616c726561647920626574000000006000830152602082019050919050565b600061224c60168361261e565b91507f4e6f2062616c616e636520746f207769746864726177000000000000000000006000830152602082019050919050565b600061228c60148361261e565b91507f596f7520686176652042657420616c72656164790000000000000000000000006000830152602082019050919050565b60006122cc60278361261e565b91507f506c656173652073656e64206d6f726520657468657220746f206a6f696e207460008301527f68652067616d65000000000000000000000000000000000000000000000000006020830152604082019050919050565b61232e81612773565b82525050565b61234561234082612773565b61278f565b82525050565b60006123578285612334565b6020820191506123678284612334565b6020820191508190509392505050565b600060208201905061238c6000830184611d88565b92915050565b60006020820190506123a76000830184611d79565b92915050565b60006020820190506123c26000830184611d97565b92915050565b60006020820190506123dd6000830184611da6565b92915050565b600060208201905081810360008301526123fc81611db5565b9050919050565b6000602082019050818103600083015261241c81611e1b565b9050919050565b6000602082019050818103600083015261243c81611ea7565b9050919050565b6000602082019050818103600083015261245c81611ee7565b9050919050565b6000602082019050818103600083015261247c81611f27565b9050919050565b6000602082019050818103600083015261249c81611f8d565b9050919050565b600060208201905081810360008301526124bc81611fcd565b9050919050565b600060208201905081810360008301526124dc8161200d565b9050919050565b600060208201905081810360008301526124fc81612073565b9050919050565b6000602082019050818103600083015261251c816120d9565b9050919050565b6000602082019050818103600083015261253c81612119565b9050919050565b6000602082019050818103600083015261255c81612159565b9050919050565b6000602082019050818103600083015261257c816121bf565b9050919050565b6000602082019050818103600083015261259c816121ff565b9050919050565b600060208201905081810360008301526125bc8161223f565b9050919050565b600060208201905081810360008301526125dc8161227f565b9050919050565b600060208201905081810360008301526125fc816122bf565b9050919050565b60006020820190506126186000830184612325565b92915050565b600082825260208201905092915050565b600061263a82612773565b915061264583612773565b9250827fffffffffffffffffffffffffffffffffffffffffffffffffffffffffffffffff0382111561267a576126796127ca565b5b828201905092915050565b600061269082612773565b915061269b83612773565b9250826126ab576126aa6127f9565b5b828204905092915050565b60006126c182612773565b91506126cc83612773565b9250817fffffffffffffffffffffffffffffffffffffffffffffffffffffffffffffffff0483118215151615612705576127046127ca565b5b828202905092915050565b600061271b82612753565b9050919050565b600061272d82612753565b9050919050565b60008115159050919050565b600081905061274e82612857565b919050565b600073ffffffffffffffffffffffffffffffffffffffff82169050919050565b6000819050919050565b600061278882612740565b9050919050565b6000819050919050565b60006127a482612773565b91506127af83612773565b9250826127bf576127be6127f9565b5b828206905092915050565b7f4e487b7100000000000000000000000000000000000000000000000000000000600052601160045260246000fd5b7f4e487b7100000000000000000000000000000000000000000000000000000000600052601260045260246000fd5b7f4e487b7100000000000000000000000000000000000000000000000000000000600052602160045260246000fd5b6003811061286857612867612828565b5b50565b61287481612773565b811461287f57600080fd5b5056fea2646970667358221220ff0039a6ecab1ce36f1d7cea1869fd640aeae377f4b5f02a36f887d6750ff5a064736f6c63430008000033",
  "linkReferences": {},
  "deployedLinkReferences": {}
}