{
  "_format": "hh-sol-artifact-1",
  "contractName": "TestNFT",
  "sourceName": "contracts/NftMintContract.sol",
  "abi": [
    {
      "inputs": [],
      "stateMutability": "nonpayable",
      "type": "constructor"
    },
    {
      "anonymous": false,
      "inputs": [
        {
          "indexed": true,
          "internalType": "address",
          "name": "owner",
          "type": "address"
        },
        {
          "indexed": true,
          "internalType": "address",
          "name": "approved",
          "type": "address"
        },
        {
          "indexed": true,
          "internalType": "uint256",
          "name": "tokenId",
          "type": "uint256"
        }
      ],
      "name": "Approval",
      "type": "event"
    },
    {
      "anonymous": false,
      "inputs": [
        {
          "indexed": true,
          "internalType": "address",
          "name": "owner",
          "type": "address"
        },
        {
          "indexed": true,
          "internalType": "address",
          "name": "operator",
          "type": "address"
        },
        {
          "indexed": false,
          "internalType": "bool",
          "name": "approved",
          "type": "bool"
        }
      ],
      "name": "ApprovalForAll",
      "type": "event"
    },
    {
      "anonymous": false,
      "inputs": [
        {
          "indexed": false,
          "internalType": "uint256",
          "name": "_fromTokenId",
          "type": "uint256"
        },
        {
          "indexed": false,
          "internalType": "uint256",
          "name": "_toTokenId",
          "type": "uint256"
        }
      ],
      "name": "BatchMetadataUpdate",
      "type": "event"
    },
    {
      "anonymous": false,
      "inputs": [
        {
          "indexed": false,
          "internalType": "uint256",
          "name": "_tokenId",
          "type": "uint256"
        }
      ],
      "name": "MetadataUpdate",
      "type": "event"
    },
    {
      "anonymous": false,
      "inputs": [
        {
          "indexed": true,
          "internalType": "address",
          "name": "previousOwner",
          "type": "address"
        },
        {
          "indexed": true,
          "internalType": "address",
          "name": "newOwner",
          "type": "address"
        }
      ],
      "name": "OwnershipTransferred",
      "type": "event"
    },
    {
      "anonymous": false,
      "inputs": [
        {
          "indexed": true,
          "internalType": "address",
          "name": "from",
          "type": "address"
        },
        {
          "indexed": true,
          "internalType": "address",
          "name": "to",
          "type": "address"
        },
        {
          "indexed": true,
          "internalType": "uint256",
          "name": "tokenId",
          "type": "uint256"
        }
      ],
      "name": "Transfer",
      "type": "event"
    },
    {
      "inputs": [
        {
          "internalType": "address",
          "name": "to",
          "type": "address"
        },
        {
          "internalType": "uint256",
          "name": "tokenId",
          "type": "uint256"
        }
      ],
      "name": "approve",
      "outputs": [],
      "stateMutability": "nonpayable",
      "type": "function"
    },
    {
      "inputs": [
        {
          "internalType": "address",
          "name": "owner",
          "type": "address"
        }
      ],
      "name": "balanceOf",
      "outputs": [
        {
          "internalType": "uint256",
          "name": "",
          "type": "uint256"
        }
      ],
      "stateMutability": "view",
      "type": "function"
    },
    {
      "inputs": [
        {
          "internalType": "uint256",
          "name": "tokenId",
          "type": "uint256"
        }
      ],
      "name": "getApproved",
      "outputs": [
        {
          "internalType": "address",
          "name": "",
          "type": "address"
        }
      ],
      "stateMutability": "view",
      "type": "function"
    },
    {
      "inputs": [
        {
          "internalType": "address",
          "name": "owner",
          "type": "address"
        },
        {
          "internalType": "address",
          "name": "operator",
          "type": "address"
        }
      ],
      "name": "isApprovedForAll",
      "outputs": [
        {
          "internalType": "bool",
          "name": "",
          "type": "bool"
        }
      ],
      "stateMutability": "view",
      "type": "function"
    },
    {
      "inputs": [
        {
          "internalType": "uint256",
          "name": "tokenId",
          "type": "uint256"
        },
        {
          "internalType": "string",
          "name": "newURI",
          "type": "string"
        }
      ],
      "name": "modifyTokenURI",
      "outputs": [],
      "stateMutability": "nonpayable",
      "type": "function"
    },
    {
      "inputs": [],
      "name": "name",
      "outputs": [
        {
          "internalType": "string",
          "name": "",
          "type": "string"
        }
      ],
      "stateMutability": "view",
      "type": "function"
    },
    {
      "inputs": [],
      "name": "owner",
      "outputs": [
        {
          "internalType": "address",
          "name": "",
          "type": "address"
        }
      ],
      "stateMutability": "view",
      "type": "function"
    },
    {
      "inputs": [
        {
          "internalType": "uint256",
          "name": "tokenId",
          "type": "uint256"
        }
      ],
      "name": "ownerOf",
      "outputs": [
        {
          "internalType": "address",
          "name": "",
          "type": "address"
        }
      ],
      "stateMutability": "view",
      "type": "function"
    },
    {
      "inputs": [],
      "name": "renounceOwnership",
      "outputs": [],
      "stateMutability": "nonpayable",
      "type": "function"
    },
    {
      "inputs": [
        {
          "internalType": "address",
          "name": "to",
          "type": "address"
        },
        {
          "internalType": "string",
          "name": "uri",
          "type": "string"
        }
      ],
      "name": "safeMint",
      "outputs": [],
      "stateMutability": "nonpayable",
      "type": "function"
    },
    {
      "inputs": [
        {
          "internalType": "address",
          "name": "from",
          "type": "address"
        },
        {
          "internalType": "address",
          "name": "to",
          "type": "address"
        },
        {
          "internalType": "uint256",
          "name": "tokenId",
          "type": "uint256"
        }
      ],
      "name": "safeTransferFrom",
      "outputs": [],
      "stateMutability": "nonpayable",
      "type": "function"
    },
    {
      "inputs": [
        {
          "internalType": "address",
          "name": "from",
          "type": "address"
        },
        {
          "internalType": "address",
          "name": "to",
          "type": "address"
        },
        {
          "internalType": "uint256",
          "name": "tokenId",
          "type": "uint256"
        },
        {
          "internalType": "bytes",
          "name": "data",
          "type": "bytes"
        }
      ],
      "name": "safeTransferFrom",
      "outputs": [],
      "stateMutability": "nonpayable",
      "type": "function"
    },
    {
      "inputs": [
        {
          "internalType": "address",
          "name": "operator",
          "type": "address"
        },
        {
          "internalType": "bool",
          "name": "approved",
          "type": "bool"
        }
      ],
      "name": "setApprovalForAll",
      "outputs": [],
      "stateMutability": "nonpayable",
      "type": "function"
    },
    {
      "inputs": [
        {
          "internalType": "bytes4",
          "name": "interfaceId",
          "type": "bytes4"
        }
      ],
      "name": "supportsInterface",
      "outputs": [
        {
          "internalType": "bool",
          "name": "",
          "type": "bool"
        }
      ],
      "stateMutability": "view",
      "type": "function"
    },
    {
      "inputs": [],
      "name": "symbol",
      "outputs": [
        {
          "internalType": "string",
          "name": "",
          "type": "string"
        }
      ],
      "stateMutability": "view",
      "type": "function"
    },
    {
      "inputs": [
        {
          "internalType": "uint256",
          "name": "index",
          "type": "uint256"
        }
      ],
      "name": "tokenByIndex",
      "outputs": [
        {
          "internalType": "uint256",
          "name": "",
          "type": "uint256"
        }
      ],
      "stateMutability": "view",
      "type": "function"
    },
    {
      "inputs": [
        {
          "internalType": "address",
          "name": "owner",
          "type": "address"
        },
        {
          "internalType": "uint256",
          "name": "index",
          "type": "uint256"
        }
      ],
      "name": "tokenOfOwnerByIndex",
      "outputs": [
        {
          "internalType": "uint256",
          "name": "",
          "type": "uint256"
        }
      ],
      "stateMutability": "view",
      "type": "function"
    },
    {
      "inputs": [
        {
          "internalType": "uint256",
          "name": "tokenId",
          "type": "uint256"
        }
      ],
      "name": "tokenURI",
      "outputs": [
        {
          "internalType": "string",
          "name": "",
          "type": "string"
        }
      ],
      "stateMutability": "view",
      "type": "function"
    },
    {
      "inputs": [],
      "name": "totalSupply",
      "outputs": [
        {
          "internalType": "uint256",
          "name": "",
          "type": "uint256"
        }
      ],
      "stateMutability": "view",
      "type": "function"
    },
    {
      "inputs": [
        {
          "internalType": "address",
          "name": "from",
          "type": "address"
        },
        {
          "internalType": "address",
          "name": "to",
          "type": "address"
        },
        {
          "internalType": "uint256",
          "name": "tokenId",
          "type": "uint256"
        }
      ],
      "name": "transferFrom",
      "outputs": [],
      "stateMutability": "nonpayable",
      "type": "function"
    },
    {
      "inputs": [
        {
          "internalType": "address",
          "name": "newOwner",
          "type": "address"
        }
      ],
      "name": "transferOwnership",
      "outputs": [],
      "stateMutability": "nonpayable",
      "type": "function"
    }
  ],
  "bytecode": "0x60806040526103e8600d553480156200001757600080fd5b506040518060400160405280600781526020017f546573744e4654000000000000000000000000000000000000000000000000008152506040518060400160405280600281526020017f544e00000000000000000000000000000000000000000000000000000000000081525081600090805190602001906200009c929190620001ac565b508060019080519060200190620000b5929190620001ac565b505050620000d8620000cc620000de60201b60201c565b620000e660201b60201c565b620002c1565b600033905090565b6000600b60009054906101000a900473ffffffffffffffffffffffffffffffffffffffff16905081600b60006101000a81548173ffffffffffffffffffffffffffffffffffffffff021916908373ffffffffffffffffffffffffffffffffffffffff1602179055508173ffffffffffffffffffffffffffffffffffffffff168173ffffffffffffffffffffffffffffffffffffffff167f8be0079c531659141344cd1fd0a4f28419497f9722a3daafe3b4186f6b6457e060405160405180910390a35050565b828054620001ba906200028b565b90600052602060002090601f016020900481019282620001de57600085556200022a565b82601f10620001f957805160ff19168380011785556200022a565b828001600101855582156200022a579182015b82811115620002295782518255916020019190600101906200020c565b5b5090506200023991906200023d565b5090565b5b80821115620002585760008160009055506001016200023e565b5090565b7f4e487b7100000000000000000000000000000000000000000000000000000000600052602260045260246000fd5b60006002820490506001821680620002a457607f821691505b60208210811415620002bb57620002ba6200025c565b5b50919050565b61384b80620002d16000396000f3fe608060405234801561001057600080fd5b50600436106101375760003560e01c806370a08231116100b8578063a2cf7e1b1161007c578063a2cf7e1b1461034e578063b88d4fde1461036a578063c87b56dd14610386578063d204c45e146103b6578063e985e9c5146103d2578063f2fde38b1461040257610137565b806370a08231146102bc578063715018a6146102ec5780638da5cb5b146102f657806395d89b4114610314578063a22cb4651461033257610137565b806323b872dd116100ff57806323b872dd146101f45780632f745c591461021057806342842e0e146102405780634f6ccce71461025c5780636352211e1461028c57610137565b806301ffc9a71461013c57806306fdde031461016c578063081812fc1461018a578063095ea7b3146101ba57806318160ddd146101d6575b600080fd5b61015660048036038101906101519190612505565b61041e565b604051610163919061254d565b60405180910390f35b610174610430565b6040516101819190612601565b60405180910390f35b6101a4600480360381019061019f9190612659565b6104c2565b6040516101b191906126c7565b60405180910390f35b6101d460048036038101906101cf919061270e565b610508565b005b6101de610620565b6040516101eb919061275d565b60405180910390f35b61020e60048036038101906102099190612778565b61062d565b005b61022a6004803603810190610225919061270e565b61068d565b604051610237919061275d565b60405180910390f35b61025a60048036038101906102559190612778565b610732565b005b61027660048036038101906102719190612659565b610752565b604051610283919061275d565b60405180910390f35b6102a660048036038101906102a19190612659565b6107c3565b6040516102b391906126c7565b60405180910390f35b6102d660048036038101906102d191906127cb565b61084a565b6040516102e3919061275d565b60405180910390f35b6102f4610902565b005b6102fe610916565b60405161030b91906126c7565b60405180910390f35b61031c610940565b6040516103299190612601565b60405180910390f35b61034c60048036038101906103479190612824565b6109d2565b005b61036860048036038101906103639190612999565b6109e8565b005b610384600480360381019061037f9190612a96565b610a46565b005b6103a0600480360381019061039b9190612659565b610aa8565b6040516103ad9190612601565b60405180910390f35b6103d060048036038101906103cb9190612b19565b610aba565b005b6103ec60048036038101906103e79190612b75565b610b30565b6040516103f9919061254d565b60405180910390f35b61041c600480360381019061041791906127cb565b610bc4565b005b600061042982610c48565b9050919050565b60606000805461043f90612be4565b80601f016020809104026020016040519081016040528092919081815260200182805461046b90612be4565b80156104b85780601f1061048d576101008083540402835291602001916104b8565b820191906000526020600020905b81548152906001019060200180831161049b57829003601f168201915b5050505050905090565b60006104cd82610ca9565b6004600083815260200190815260200160002060009054906101000a900473ffffffffffffffffffffffffffffffffffffffff169050919050565b6000610513826107c3565b90508073ffffffffffffffffffffffffffffffffffffffff168373ffffffffffffffffffffffffffffffffffffffff161415610584576040517f08c379a000000000000000000000000000000000000000000000000000000000815260040161057b90612c88565b60405180910390fd5b8073ffffffffffffffffffffffffffffffffffffffff166105a3610cf4565b73ffffffffffffffffffffffffffffffffffffffff1614806105d257506105d1816105cc610cf4565b610b30565b5b610611576040517f08c379a000000000000000000000000000000000000000000000000000000000815260040161060890612d1a565b60405180910390fd5b61061b8383610cfc565b505050565b6000600880549050905090565b61063e610638610cf4565b82610db5565b61067d576040517f08c379a000000000000000000000000000000000000000000000000000000000815260040161067490612dac565b60405180910390fd5b610688838383610e4a565b505050565b60006106988361084a565b82106106d9576040517f08c379a00000000000000000000000000000000000000000000000000000000081526004016106d090612e3e565b60405180910390fd5b600660008473ffffffffffffffffffffffffffffffffffffffff1673ffffffffffffffffffffffffffffffffffffffff168152602001908152602001600020600083815260200190815260200160002054905092915050565b61074d83838360405180602001604052806000815250610a46565b505050565b600061075c610620565b821061079d576040517f08c379a000000000000000000000000000000000000000000000000000000000815260040161079490612ed0565b60405180910390fd5b600882815481106107b1576107b0612ef0565b5b90600052602060002001549050919050565b6000806107cf83611144565b9050600073ffffffffffffffffffffffffffffffffffffffff168173ffffffffffffffffffffffffffffffffffffffff161415610841576040517f08c379a000000000000000000000000000000000000000000000000000000000815260040161083890612f6b565b60405180910390fd5b80915050919050565b60008073ffffffffffffffffffffffffffffffffffffffff168273ffffffffffffffffffffffffffffffffffffffff1614156108bb576040517f08c379a00000000000000000000000000000000000000000000000000000000081526004016108b290612ffd565b60405180910390fd5b600360008373ffffffffffffffffffffffffffffffffffffffff1673ffffffffffffffffffffffffffffffffffffffff168152602001908152602001600020549050919050565b61090a611181565b61091460006111ff565b565b6000600b60009054906101000a900473ffffffffffffffffffffffffffffffffffffffff16905090565b60606001805461094f90612be4565b80601f016020809104026020016040519081016040528092919081815260200182805461097b90612be4565b80156109c85780601f1061099d576101008083540402835291602001916109c8565b820191906000526020600020905b8154815290600101906020018083116109ab57829003601f168201915b5050505050905090565b6109e46109dd610cf4565b83836112c5565b5050565b6109f0611181565b6109f982611432565b610a38576040517f08c379a0000000000000000000000000000000000000000000000000000000008152600401610a2f90613069565b60405180910390fd5b610a428282611473565b5050565b610a57610a51610cf4565b83610db5565b610a96576040517f08c379a0000000000000000000000000000000000000000000000000000000008152600401610a8d90612dac565b60405180910390fd5b610aa28484848461151e565b50505050565b6060610ab38261157a565b9050919050565b6000610ac6600c61168d565b9050600d54811115610b0d576040517f08c379a0000000000000000000000000000000000000000000000000000000008152600401610b04906130d5565b60405180910390fd5b610b17600c61169b565b610b2183826116b1565b610b2b8183611473565b505050565b6000600560008473ffffffffffffffffffffffffffffffffffffffff1673ffffffffffffffffffffffffffffffffffffffff16815260200190815260200160002060008373ffffffffffffffffffffffffffffffffffffffff1673ffffffffffffffffffffffffffffffffffffffff16815260200190815260200160002060009054906101000a900460ff16905092915050565b610bcc611181565b600073ffffffffffffffffffffffffffffffffffffffff168173ffffffffffffffffffffffffffffffffffffffff161415610c3c576040517f08c379a0000000000000000000000000000000000000000000000000000000008152600401610c3390613167565b60405180910390fd5b610c45816111ff565b50565b6000634906490660e01b7bffffffffffffffffffffffffffffffffffffffffffffffffffffffff1916827bffffffffffffffffffffffffffffffffffffffffffffffffffffffff19161480610ca25750610ca1826116cf565b5b9050919050565b610cb281611432565b610cf1576040517f08c379a0000000000000000000000000000000000000000000000000000000008152600401610ce890612f6b565b60405180910390fd5b50565b600033905090565b816004600083815260200190815260200160002060006101000a81548173ffffffffffffffffffffffffffffffffffffffff021916908373ffffffffffffffffffffffffffffffffffffffff160217905550808273ffffffffffffffffffffffffffffffffffffffff16610d6f836107c3565b73ffffffffffffffffffffffffffffffffffffffff167f8c5be1e5ebec7d5bd14f71427d1e84f3dd0314c0f7b2291e5b200ac8c7c3b92560405160405180910390a45050565b600080610dc1836107c3565b90508073ffffffffffffffffffffffffffffffffffffffff168473ffffffffffffffffffffffffffffffffffffffff161480610e035750610e028185610b30565b5b80610e4157508373ffffffffffffffffffffffffffffffffffffffff16610e29846104c2565b73ffffffffffffffffffffffffffffffffffffffff16145b91505092915050565b8273ffffffffffffffffffffffffffffffffffffffff16610e6a826107c3565b73ffffffffffffffffffffffffffffffffffffffff1614610ec0576040517f08c379a0000000000000000000000000000000000000000000000000000000008152600401610eb7906131f9565b60405180910390fd5b600073ffffffffffffffffffffffffffffffffffffffff168273ffffffffffffffffffffffffffffffffffffffff161415610f30576040517f08c379a0000000000000000000000000000000000000000000000000000000008152600401610f279061328b565b60405180910390fd5b610f3d8383836001611749565b8273ffffffffffffffffffffffffffffffffffffffff16610f5d826107c3565b73ffffffffffffffffffffffffffffffffffffffff1614610fb3576040517f08c379a0000000000000000000000000000000000000000000000000000000008152600401610faa906131f9565b60405180910390fd5b6004600082815260200190815260200160002060006101000a81549073ffffffffffffffffffffffffffffffffffffffff02191690556001600360008573ffffffffffffffffffffffffffffffffffffffff1673ffffffffffffffffffffffffffffffffffffffff168152602001908152602001600020600082825403925050819055506001600360008473ffffffffffffffffffffffffffffffffffffffff1673ffffffffffffffffffffffffffffffffffffffff16815260200190815260200160002060008282540192505081905550816002600083815260200190815260200160002060006101000a81548173ffffffffffffffffffffffffffffffffffffffff021916908373ffffffffffffffffffffffffffffffffffffffff160217905550808273ffffffffffffffffffffffffffffffffffffffff168473ffffffffffffffffffffffffffffffffffffffff167fddf252ad1be2c89b69c2b068fc378daa952ba7f163c4a11628f55a4df523b3ef60405160405180910390a461113f838383600161175b565b505050565b60006002600083815260200190815260200160002060009054906101000a900473ffffffffffffffffffffffffffffffffffffffff169050919050565b611189610cf4565b73ffffffffffffffffffffffffffffffffffffffff166111a7610916565b73ffffffffffffffffffffffffffffffffffffffff16146111fd576040517f08c379a00000000000000000000000000000000000000000000000000000000081526004016111f4906132f7565b60405180910390fd5b565b6000600b60009054906101000a900473ffffffffffffffffffffffffffffffffffffffff16905081600b60006101000a81548173ffffffffffffffffffffffffffffffffffffffff021916908373ffffffffffffffffffffffffffffffffffffffff1602179055508173ffffffffffffffffffffffffffffffffffffffff168173ffffffffffffffffffffffffffffffffffffffff167f8be0079c531659141344cd1fd0a4f28419497f9722a3daafe3b4186f6b6457e060405160405180910390a35050565b8173ffffffffffffffffffffffffffffffffffffffff168373ffffffffffffffffffffffffffffffffffffffff161415611334576040517f08c379a000000000000000000000000000000000000000000000000000000000815260040161132b90613363565b60405180910390fd5b80600560008573ffffffffffffffffffffffffffffffffffffffff1673ffffffffffffffffffffffffffffffffffffffff16815260200190815260200160002060008473ffffffffffffffffffffffffffffffffffffffff1673ffffffffffffffffffffffffffffffffffffffff16815260200190815260200160002060006101000a81548160ff0219169083151502179055508173ffffffffffffffffffffffffffffffffffffffff168373ffffffffffffffffffffffffffffffffffffffff167f17307eab39ab6107e8899845ad3d59bd9653f200f220920489ca2b5937696c3183604051611425919061254d565b60405180910390a3505050565b60008073ffffffffffffffffffffffffffffffffffffffff1661145483611144565b73ffffffffffffffffffffffffffffffffffffffff1614159050919050565b61147c82611432565b6114bb576040517f08c379a00000000000000000000000000000000000000000000000000000000081526004016114b2906133f5565b60405180910390fd5b80600a600084815260200190815260200160002090805190602001906114e29291906123f6565b507ff8e1a15aba9398e019f0b49df1a4fde98ee17ae345cb5f6b5e2c27f5033e8ce782604051611512919061275d565b60405180910390a15050565b611529848484610e4a565b61153584848484611761565b611574576040517f08c379a000000000000000000000000000000000000000000000000000000000815260040161156b90613487565b60405180910390fd5b50505050565b606061158582610ca9565b6000600a600084815260200190815260200160002080546115a590612be4565b80601f01602080910402602001604051908101604052809291908181526020018280546115d190612be4565b801561161e5780601f106115f35761010080835404028352916020019161161e565b820191906000526020600020905b81548152906001019060200180831161160157829003601f168201915b50505050509050600061162f6118f8565b9050600081511415611645578192505050611688565b60008251111561167a5780826040516020016116629291906134e3565b60405160208183030381529060405292505050611688565b6116838461190f565b925050505b919050565b600081600001549050919050565b6001816000016000828254019250508190555050565b6116cb828260405180602001604052806000815250611977565b5050565b60007f780e9d63000000000000000000000000000000000000000000000000000000007bffffffffffffffffffffffffffffffffffffffffffffffffffffffff1916827bffffffffffffffffffffffffffffffffffffffffffffffffffffffff191614806117425750611741826119d2565b5b9050919050565b61175584848484611ab4565b50505050565b50505050565b60006117828473ffffffffffffffffffffffffffffffffffffffff16611c14565b156118eb578373ffffffffffffffffffffffffffffffffffffffff1663150b7a026117ab610cf4565b8786866040518563ffffffff1660e01b81526004016117cd949392919061355c565b602060405180830381600087803b1580156117e757600080fd5b505af192505050801561181857506040513d601f19601f8201168201806040525081019061181591906135bd565b60015b61189b573d8060008114611848576040519150601f19603f3d011682016040523d82523d6000602084013e61184d565b606091505b50600081511415611893576040517f08c379a000000000000000000000000000000000000000000000000000000000815260040161188a90613487565b60405180910390fd5b805181602001fd5b63150b7a0260e01b7bffffffffffffffffffffffffffffffffffffffffffffffffffffffff1916817bffffffffffffffffffffffffffffffffffffffffffffffffffffffff1916149150506118f0565b600190505b949350505050565b606060405180602001604052806000815250905090565b606061191a82610ca9565b60006119246118f8565b90506000815111611944576040518060200160405280600081525061196f565b8061194e84611c37565b60405160200161195f9291906134e3565b6040516020818303038152906040525b915050919050565b6119818383611d0f565b61198e6000848484611761565b6119cd576040517f08c379a00000000000000000000000000000000000000000000000000000000081526004016119c490613487565b60405180910390fd5b505050565b60007f80ac58cd000000000000000000000000000000000000000000000000000000007bffffffffffffffffffffffffffffffffffffffffffffffffffffffff1916827bffffffffffffffffffffffffffffffffffffffffffffffffffffffff19161480611a9d57507f5b5e139f000000000000000000000000000000000000000000000000000000007bffffffffffffffffffffffffffffffffffffffffffffffffffffffff1916827bffffffffffffffffffffffffffffffffffffffffffffffffffffffff1916145b80611aad5750611aac82611f2d565b5b9050919050565b611ac084848484611f97565b6001811115611b04576040517f08c379a0000000000000000000000000000000000000000000000000000000008152600401611afb9061365c565b60405180910390fd5b6000829050600073ffffffffffffffffffffffffffffffffffffffff168573ffffffffffffffffffffffffffffffffffffffff161415611b4c57611b4781611f9d565b611b8b565b8373ffffffffffffffffffffffffffffffffffffffff168573ffffffffffffffffffffffffffffffffffffffff1614611b8a57611b898582611fe6565b5b5b600073ffffffffffffffffffffffffffffffffffffffff168473ffffffffffffffffffffffffffffffffffffffff161415611bce57611bc981612153565b611c0d565b8473ffffffffffffffffffffffffffffffffffffffff168473ffffffffffffffffffffffffffffffffffffffff1614611c0c57611c0b8482612224565b5b5b5050505050565b6000808273ffffffffffffffffffffffffffffffffffffffff163b119050919050565b606060006001611c46846122a3565b01905060008167ffffffffffffffff811115611c6557611c6461286e565b5b6040519080825280601f01601f191660200182016040528015611c975781602001600182028036833780820191505090505b509050600082602001820190505b600115611d04578080600190039150507f3031323334353637383961626364656600000000000000000000000000000000600a86061a8153600a8581611cee57611ced61367c565b5b0494506000851415611cff57611d04565b611ca5565b819350505050919050565b600073ffffffffffffffffffffffffffffffffffffffff168273ffffffffffffffffffffffffffffffffffffffff161415611d7f576040517f08c379a0000000000000000000000000000000000000000000000000000000008152600401611d76906136f7565b60405180910390fd5b611d8881611432565b15611dc8576040517f08c379a0000000000000000000000000000000000000000000000000000000008152600401611dbf90613763565b60405180910390fd5b611dd6600083836001611749565b611ddf81611432565b15611e1f576040517f08c379a0000000000000000000000000000000000000000000000000000000008152600401611e1690613763565b60405180910390fd5b6001600360008473ffffffffffffffffffffffffffffffffffffffff1673ffffffffffffffffffffffffffffffffffffffff16815260200190815260200160002060008282540192505081905550816002600083815260200190815260200160002060006101000a81548173ffffffffffffffffffffffffffffffffffffffff021916908373ffffffffffffffffffffffffffffffffffffffff160217905550808273ffffffffffffffffffffffffffffffffffffffff16600073ffffffffffffffffffffffffffffffffffffffff167fddf252ad1be2c89b69c2b068fc378daa952ba7f163c4a11628f55a4df523b3ef60405160405180910390a4611f2960008383600161175b565b5050565b60007f01ffc9a7000000000000000000000000000000000000000000000000000000007bffffffffffffffffffffffffffffffffffffffffffffffffffffffff1916827bffffffffffffffffffffffffffffffffffffffffffffffffffffffff1916149050919050565b50505050565b6008805490506009600083815260200190815260200160002081905550600881908060018154018082558091505060019003906000526020600020016000909190919091505550565b60006001611ff38461084a565b611ffd91906137b2565b90506000600760008481526020019081526020016000205490508181146120e2576000600660008673ffffffffffffffffffffffffffffffffffffffff1673ffffffffffffffffffffffffffffffffffffffff168152602001908152602001600020600084815260200190815260200160002054905080600660008773ffffffffffffffffffffffffffffffffffffffff1673ffffffffffffffffffffffffffffffffffffffff168152602001908152602001600020600084815260200190815260200160002081905550816007600083815260200190815260200160002081905550505b6007600084815260200190815260200160002060009055600660008573ffffffffffffffffffffffffffffffffffffffff1673ffffffffffffffffffffffffffffffffffffffff16815260200190815260200160002060008381526020019081526020016000206000905550505050565b6000600160088054905061216791906137b2565b905060006009600084815260200190815260200160002054905060006008838154811061219757612196612ef0565b5b9060005260206000200154905080600883815481106121b9576121b8612ef0565b5b906000526020600020018190555081600960008381526020019081526020016000208190555060096000858152602001908152602001600020600090556008805480612208576122076137e6565b5b6001900381819060005260206000200160009055905550505050565b600061222f8361084a565b905081600660008573ffffffffffffffffffffffffffffffffffffffff1673ffffffffffffffffffffffffffffffffffffffff168152602001908152602001600020600083815260200190815260200160002081905550806007600084815260200190815260200160002081905550505050565b600080600090507a184f03e93ff9f4daa797ed6e38ed64bf6a1f0100000000000000008310612301577a184f03e93ff9f4daa797ed6e38ed64bf6a1f01000000000000000083816122f7576122f661367c565b5b0492506040810190505b6d04ee2d6d415b85acef8100000000831061233e576d04ee2d6d415b85acef810000000083816123345761233361367c565b5b0492506020810190505b662386f26fc10000831061236d57662386f26fc1000083816123635761236261367c565b5b0492506010810190505b6305f5e1008310612396576305f5e100838161238c5761238b61367c565b5b0492506008810190505b61271083106123bb5761271083816123b1576123b061367c565b5b0492506004810190505b606483106123de57606483816123d4576123d361367c565b5b0492506002810190505b600a83106123ed576001810190505b80915050919050565b82805461240290612be4565b90600052602060002090601f016020900481019282612424576000855561246b565b82601f1061243d57805160ff191683800117855561246b565b8280016001018555821561246b579182015b8281111561246a57825182559160200191906001019061244f565b5b509050612478919061247c565b5090565b5b8082111561249557600081600090555060010161247d565b5090565b6000604051905090565b600080fd5b600080fd5b60007fffffffff0000000000000000000000000000000000000000000000000000000082169050919050565b6124e2816124ad565b81146124ed57600080fd5b50565b6000813590506124ff816124d9565b92915050565b60006020828403121561251b5761251a6124a3565b5b6000612529848285016124f0565b91505092915050565b60008115159050919050565b61254781612532565b82525050565b6000602082019050612562600083018461253e565b92915050565b600081519050919050565b600082825260208201905092915050565b60005b838110156125a2578082015181840152602081019050612587565b838111156125b1576000848401525b50505050565b6000601f19601f8301169050919050565b60006125d382612568565b6125dd8185612573565b93506125ed818560208601612584565b6125f6816125b7565b840191505092915050565b6000602082019050818103600083015261261b81846125c8565b905092915050565b6000819050919050565b61263681612623565b811461264157600080fd5b50565b6000813590506126538161262d565b92915050565b60006020828403121561266f5761266e6124a3565b5b600061267d84828501612644565b91505092915050565b600073ffffffffffffffffffffffffffffffffffffffff82169050919050565b60006126b182612686565b9050919050565b6126c1816126a6565b82525050565b60006020820190506126dc60008301846126b8565b92915050565b6126eb816126a6565b81146126f657600080fd5b50565b600081359050612708816126e2565b92915050565b60008060408385031215612725576127246124a3565b5b6000612733858286016126f9565b925050602061274485828601612644565b9150509250929050565b61275781612623565b82525050565b6000602082019050612772600083018461274e565b92915050565b600080600060608486031215612791576127906124a3565b5b600061279f868287016126f9565b93505060206127b0868287016126f9565b92505060406127c186828701612644565b9150509250925092565b6000602082840312156127e1576127e06124a3565b5b60006127ef848285016126f9565b91505092915050565b61280181612532565b811461280c57600080fd5b50565b60008135905061281e816127f8565b92915050565b6000806040838503121561283b5761283a6124a3565b5b6000612849858286016126f9565b925050602061285a8582860161280f565b9150509250929050565b600080fd5b600080fd5b7f4e487b7100000000000000000000000000000000000000000000000000000000600052604160045260246000fd5b6128a6826125b7565b810181811067ffffffffffffffff821117156128c5576128c461286e565b5b80604052505050565b60006128d8612499565b90506128e4828261289d565b919050565b600067ffffffffffffffff8211156129045761290361286e565b5b61290d826125b7565b9050602081019050919050565b82818337600083830152505050565b600061293c612937846128e9565b6128ce565b90508281526020810184848401111561295857612957612869565b5b61296384828561291a565b509392505050565b600082601f8301126129805761297f612864565b5b8135612990848260208601612929565b91505092915050565b600080604083850312156129b0576129af6124a3565b5b60006129be85828601612644565b925050602083013567ffffffffffffffff8111156129df576129de6124a8565b5b6129eb8582860161296b565b9150509250929050565b600067ffffffffffffffff821115612a1057612a0f61286e565b5b612a19826125b7565b9050602081019050919050565b6000612a39612a34846129f5565b6128ce565b905082815260208101848484011115612a5557612a54612869565b5b612a6084828561291a565b509392505050565b600082601f830112612a7d57612a7c612864565b5b8135612a8d848260208601612a26565b91505092915050565b60008060008060808587031215612ab057612aaf6124a3565b5b6000612abe878288016126f9565b9450506020612acf878288016126f9565b9350506040612ae087828801612644565b925050606085013567ffffffffffffffff811115612b0157612b006124a8565b5b612b0d87828801612a68565b91505092959194509250565b60008060408385031215612b3057612b2f6124a3565b5b6000612b3e858286016126f9565b925050602083013567ffffffffffffffff811115612b5f57612b5e6124a8565b5b612b6b8582860161296b565b9150509250929050565b60008060408385031215612b8c57612b8b6124a3565b5b6000612b9a858286016126f9565b9250506020612bab858286016126f9565b9150509250929050565b7f4e487b7100000000000000000000000000000000000000000000000000000000600052602260045260246000fd5b60006002820490506001821680612bfc57607f821691505b60208210811415612c1057612c0f612bb5565b5b50919050565b7f4552433732313a20617070726f76616c20746f2063757272656e74206f776e6560008201527f7200000000000000000000000000000000000000000000000000000000000000602082015250565b6000612c72602183612573565b9150612c7d82612c16565b604082019050919050565b60006020820190508181036000830152612ca181612c65565b9050919050565b7f4552433732313a20617070726f76652063616c6c6572206973206e6f7420746f60008201527f6b656e206f776e6572206f7220617070726f76656420666f7220616c6c000000602082015250565b6000612d04603d83612573565b9150612d0f82612ca8565b604082019050919050565b60006020820190508181036000830152612d3381612cf7565b9050919050565b7f4552433732313a2063616c6c6572206973206e6f7420746f6b656e206f776e6560008201527f72206f7220617070726f76656400000000000000000000000000000000000000602082015250565b6000612d96602d83612573565b9150612da182612d3a565b604082019050919050565b60006020820190508181036000830152612dc581612d89565b9050919050565b7f455243373231456e756d657261626c653a206f776e657220696e646578206f7560008201527f74206f6620626f756e6473000000000000000000000000000000000000000000602082015250565b6000612e28602b83612573565b9150612e3382612dcc565b604082019050919050565b60006020820190508181036000830152612e5781612e1b565b9050919050565b7f455243373231456e756d657261626c653a20676c6f62616c20696e646578206f60008201527f7574206f6620626f756e64730000000000000000000000000000000000000000602082015250565b6000612eba602c83612573565b9150612ec582612e5e565b604082019050919050565b60006020820190508181036000830152612ee981612ead565b9050919050565b7f4e487b7100000000000000000000000000000000000000000000000000000000600052603260045260246000fd5b7f4552433732313a20696e76616c696420746f6b656e2049440000000000000000600082015250565b6000612f55601883612573565b9150612f6082612f1f565b602082019050919050565b60006020820190508181036000830152612f8481612f48565b9050919050565b7f4552433732313a2061646472657373207a65726f206973206e6f74206120766160008201527f6c6964206f776e65720000000000000000000000000000000000000000000000602082015250565b6000612fe7602983612573565b9150612ff282612f8b565b604082019050919050565b6000602082019050818103600083015261301681612fda565b9050919050565b7f546f6b656e20646f6573206e6f74206578697374000000000000000000000000600082015250565b6000613053601483612573565b915061305e8261301d565b602082019050919050565b6000602082019050818103600083015261308281613046565b9050919050565b7f536f7272792c20416c6c204e46542068617665206265656e206d696e74656400600082015250565b60006130bf601f83612573565b91506130ca82613089565b602082019050919050565b600060208201905081810360008301526130ee816130b2565b9050919050565b7f4f776e61626c653a206e6577206f776e657220697320746865207a65726f206160008201527f6464726573730000000000000000000000000000000000000000000000000000602082015250565b6000613151602683612573565b915061315c826130f5565b604082019050919050565b6000602082019050818103600083015261318081613144565b9050919050565b7f4552433732313a207472616e736665722066726f6d20696e636f72726563742060008201527f6f776e6572000000000000000000000000000000000000000000000000000000602082015250565b60006131e3602583612573565b91506131ee82613187565b604082019050919050565b60006020820190508181036000830152613212816131d6565b9050919050565b7f4552433732313a207472616e7366657220746f20746865207a65726f2061646460008201527f7265737300000000000000000000000000000000000000000000000000000000602082015250565b6000613275602483612573565b915061328082613219565b604082019050919050565b600060208201905081810360008301526132a481613268565b9050919050565b7f4f776e61626c653a2063616c6c6572206973206e6f7420746865206f776e6572600082015250565b60006132e1602083612573565b91506132ec826132ab565b602082019050919050565b60006020820190508181036000830152613310816132d4565b9050919050565b7f4552433732313a20617070726f766520746f2063616c6c657200000000000000600082015250565b600061334d601983612573565b915061335882613317565b602082019050919050565b6000602082019050818103600083015261337c81613340565b9050919050565b7f45524337323155524953746f726167653a2055524920736574206f66206e6f6e60008201527f6578697374656e7420746f6b656e000000000000000000000000000000000000602082015250565b60006133df602e83612573565b91506133ea82613383565b604082019050919050565b6000602082019050818103600083015261340e816133d2565b9050919050565b7f4552433732313a207472616e7366657220746f206e6f6e20455243373231526560008201527f63656976657220696d706c656d656e7465720000000000000000000000000000602082015250565b6000613471603283612573565b915061347c82613415565b604082019050919050565b600060208201905081810360008301526134a081613464565b9050919050565b600081905092915050565b60006134bd82612568565b6134c781856134a7565b93506134d7818560208601612584565b80840191505092915050565b60006134ef82856134b2565b91506134fb82846134b2565b91508190509392505050565b600081519050919050565b600082825260208201905092915050565b600061352e82613507565b6135388185613512565b9350613548818560208601612584565b613551816125b7565b840191505092915050565b600060808201905061357160008301876126b8565b61357e60208301866126b8565b61358b604083018561274e565b818103606083015261359d8184613523565b905095945050505050565b6000815190506135b7816124d9565b92915050565b6000602082840312156135d3576135d26124a3565b5b60006135e1848285016135a8565b91505092915050565b7f455243373231456e756d657261626c653a20636f6e736563757469766520747260008201527f616e7366657273206e6f7420737570706f727465640000000000000000000000602082015250565b6000613646603583612573565b9150613651826135ea565b604082019050919050565b6000602082019050818103600083015261367581613639565b9050919050565b7f4e487b7100000000000000000000000000000000000000000000000000000000600052601260045260246000fd5b7f4552433732313a206d696e7420746f20746865207a65726f2061646472657373600082015250565b60006136e1602083612573565b91506136ec826136ab565b602082019050919050565b60006020820190508181036000830152613710816136d4565b9050919050565b7f4552433732313a20746f6b656e20616c7265616479206d696e74656400000000600082015250565b600061374d601c83612573565b915061375882613717565b602082019050919050565b6000602082019050818103600083015261377c81613740565b9050919050565b7f4e487b7100000000000000000000000000000000000000000000000000000000600052601160045260246000fd5b60006137bd82612623565b91506137c883612623565b9250828210156137db576137da613783565b5b828203905092915050565b7f4e487b7100000000000000000000000000000000000000000000000000000000600052603160045260246000fdfea2646970667358221220610707e911b16b7bff16bf4a8d4f4249094e3e76df50e9f9eafed94c870dbe0664736f6c63430008090033",
  "linkReferences": {},
  "deployedLinkReferences": {}
}