{
  "_format": "hh-sol-artifact-1",
  "contractName": "TestNFT",
  "sourceName": "contracts/NftMintContract.sol",
  "abi": [
    {
      "inputs": [],
      "stateMutability": "nonpayable",
      "type": "constructor"
    },
    {
      "anonymous": false,
      "inputs": [
        {
          "indexed": true,
          "internalType": "address",
          "name": "owner",
          "type": "address"
        },
        {
          "indexed": true,
          "internalType": "address",
          "name": "approved",
          "type": "address"
        },
        {
          "indexed": true,
          "internalType": "uint256",
          "name": "tokenId",
          "type": "uint256"
        }
      ],
      "name": "Approval",
      "type": "event"
    },
    {
      "anonymous": false,
      "inputs": [
        {
          "indexed": true,
          "internalType": "address",
          "name": "owner",
          "type": "address"
        },
        {
          "indexed": true,
          "internalType": "address",
          "name": "operator",
          "type": "address"
        },
        {
          "indexed": false,
          "internalType": "bool",
          "name": "approved",
          "type": "bool"
        }
      ],
      "name": "ApprovalForAll",
      "type": "event"
    },
    {
      "anonymous": false,
      "inputs": [
        {
          "indexed": false,
          "internalType": "uint256",
          "name": "_fromTokenId",
          "type": "uint256"
        },
        {
          "indexed": false,
          "internalType": "uint256",
          "name": "_toTokenId",
          "type": "uint256"
        }
      ],
      "name": "BatchMetadataUpdate",
      "type": "event"
    },
    {
      "anonymous": false,
      "inputs": [
        {
          "indexed": false,
          "internalType": "uint256",
          "name": "_tokenId",
          "type": "uint256"
        }
      ],
      "name": "MetadataUpdate",
      "type": "event"
    },
    {
      "anonymous": false,
      "inputs": [
        {
          "indexed": true,
          "internalType": "address",
          "name": "previousOwner",
          "type": "address"
        },
        {
          "indexed": true,
          "internalType": "address",
          "name": "newOwner",
          "type": "address"
        }
      ],
      "name": "OwnershipTransferred",
      "type": "event"
    },
    {
      "anonymous": false,
      "inputs": [
        {
          "indexed": true,
          "internalType": "address",
          "name": "from",
          "type": "address"
        },
        {
          "indexed": true,
          "internalType": "address",
          "name": "to",
          "type": "address"
        },
        {
          "indexed": true,
          "internalType": "uint256",
          "name": "tokenId",
          "type": "uint256"
        }
      ],
      "name": "Transfer",
      "type": "event"
    },
    {
      "inputs": [],
      "name": "MAX_SUPPLY",
      "outputs": [
        {
          "internalType": "uint256",
          "name": "",
          "type": "uint256"
        }
      ],
      "stateMutability": "view",
      "type": "function"
    },
    {
      "inputs": [
        {
          "internalType": "address",
          "name": "to",
          "type": "address"
        },
        {
          "internalType": "uint256",
          "name": "tokenId",
          "type": "uint256"
        }
      ],
      "name": "approve",
      "outputs": [],
      "stateMutability": "nonpayable",
      "type": "function"
    },
    {
      "inputs": [
        {
          "internalType": "address",
          "name": "owner",
          "type": "address"
        }
      ],
      "name": "balanceOf",
      "outputs": [
        {
          "internalType": "uint256",
          "name": "",
          "type": "uint256"
        }
      ],
      "stateMutability": "view",
      "type": "function"
    },
    {
      "inputs": [
        {
          "internalType": "uint256",
          "name": "tokenId",
          "type": "uint256"
        }
      ],
      "name": "getApproved",
      "outputs": [
        {
          "internalType": "address",
          "name": "",
          "type": "address"
        }
      ],
      "stateMutability": "view",
      "type": "function"
    },
    {
      "inputs": [
        {
          "internalType": "address",
          "name": "owner",
          "type": "address"
        },
        {
          "internalType": "address",
          "name": "operator",
          "type": "address"
        }
      ],
      "name": "isApprovedForAll",
      "outputs": [
        {
          "internalType": "bool",
          "name": "",
          "type": "bool"
        }
      ],
      "stateMutability": "view",
      "type": "function"
    },
    {
      "inputs": [
        {
          "internalType": "uint256",
          "name": "tokenId",
          "type": "uint256"
        },
        {
          "internalType": "string",
          "name": "newURI",
          "type": "string"
        }
      ],
      "name": "modifyTokenURI",
      "outputs": [],
      "stateMutability": "nonpayable",
      "type": "function"
    },
    {
      "inputs": [],
      "name": "name",
      "outputs": [
        {
          "internalType": "string",
          "name": "",
          "type": "string"
        }
      ],
      "stateMutability": "view",
      "type": "function"
    },
    {
      "inputs": [],
      "name": "owner",
      "outputs": [
        {
          "internalType": "address",
          "name": "",
          "type": "address"
        }
      ],
      "stateMutability": "view",
      "type": "function"
    },
    {
      "inputs": [
        {
          "internalType": "uint256",
          "name": "tokenId",
          "type": "uint256"
        }
      ],
      "name": "ownerOf",
      "outputs": [
        {
          "internalType": "address",
          "name": "",
          "type": "address"
        }
      ],
      "stateMutability": "view",
      "type": "function"
    },
    {
      "inputs": [],
      "name": "renounceOwnership",
      "outputs": [],
      "stateMutability": "nonpayable",
      "type": "function"
    },
    {
      "inputs": [
        {
          "internalType": "address",
          "name": "to",
          "type": "address"
        },
        {
          "internalType": "string",
          "name": "uri",
          "type": "string"
        }
      ],
      "name": "safeMint",
      "outputs": [],
      "stateMutability": "nonpayable",
      "type": "function"
    },
    {
      "inputs": [
        {
          "internalType": "address",
          "name": "from",
          "type": "address"
        },
        {
          "internalType": "address",
          "name": "to",
          "type": "address"
        },
        {
          "internalType": "uint256",
          "name": "tokenId",
          "type": "uint256"
        }
      ],
      "name": "safeTransferFrom",
      "outputs": [],
      "stateMutability": "nonpayable",
      "type": "function"
    },
    {
      "inputs": [
        {
          "internalType": "address",
          "name": "from",
          "type": "address"
        },
        {
          "internalType": "address",
          "name": "to",
          "type": "address"
        },
        {
          "internalType": "uint256",
          "name": "tokenId",
          "type": "uint256"
        },
        {
          "internalType": "bytes",
          "name": "data",
          "type": "bytes"
        }
      ],
      "name": "safeTransferFrom",
      "outputs": [],
      "stateMutability": "nonpayable",
      "type": "function"
    },
    {
      "inputs": [
        {
          "internalType": "address",
          "name": "operator",
          "type": "address"
        },
        {
          "internalType": "bool",
          "name": "approved",
          "type": "bool"
        }
      ],
      "name": "setApprovalForAll",
      "outputs": [],
      "stateMutability": "nonpayable",
      "type": "function"
    },
    {
      "inputs": [
        {
          "internalType": "bytes4",
          "name": "interfaceId",
          "type": "bytes4"
        }
      ],
      "name": "supportsInterface",
      "outputs": [
        {
          "internalType": "bool",
          "name": "",
          "type": "bool"
        }
      ],
      "stateMutability": "view",
      "type": "function"
    },
    {
      "inputs": [],
      "name": "symbol",
      "outputs": [
        {
          "internalType": "string",
          "name": "",
          "type": "string"
        }
      ],
      "stateMutability": "view",
      "type": "function"
    },
    {
      "inputs": [
        {
          "internalType": "uint256",
          "name": "index",
          "type": "uint256"
        }
      ],
      "name": "tokenByIndex",
      "outputs": [
        {
          "internalType": "uint256",
          "name": "",
          "type": "uint256"
        }
      ],
      "stateMutability": "view",
      "type": "function"
    },
    {
      "inputs": [
        {
          "internalType": "address",
          "name": "owner",
          "type": "address"
        },
        {
          "internalType": "uint256",
          "name": "index",
          "type": "uint256"
        }
      ],
      "name": "tokenOfOwnerByIndex",
      "outputs": [
        {
          "internalType": "uint256",
          "name": "",
          "type": "uint256"
        }
      ],
      "stateMutability": "view",
      "type": "function"
    },
    {
      "inputs": [
        {
          "internalType": "uint256",
          "name": "tokenId",
          "type": "uint256"
        }
      ],
      "name": "tokenURI",
      "outputs": [
        {
          "internalType": "string",
          "name": "",
          "type": "string"
        }
      ],
      "stateMutability": "view",
      "type": "function"
    },
    {
      "inputs": [],
      "name": "totalSupply",
      "outputs": [
        {
          "internalType": "uint256",
          "name": "",
          "type": "uint256"
        }
      ],
      "stateMutability": "view",
      "type": "function"
    },
    {
      "inputs": [
        {
          "internalType": "address",
          "name": "from",
          "type": "address"
        },
        {
          "internalType": "address",
          "name": "to",
          "type": "address"
        },
        {
          "internalType": "uint256",
          "name": "tokenId",
          "type": "uint256"
        }
      ],
      "name": "transferFrom",
      "outputs": [],
      "stateMutability": "nonpayable",
      "type": "function"
    },
    {
      "inputs": [
        {
          "internalType": "address",
          "name": "newOwner",
          "type": "address"
        }
      ],
      "name": "transferOwnership",
      "outputs": [],
      "stateMutability": "nonpayable",
      "type": "function"
    }
  ],
  "bytecode": "0x6080604052600a600d553480156200001657600080fd5b506040518060400160405280600781526020017f546573744e4654000000000000000000000000000000000000000000000000008152506040518060400160405280600281526020017f544e00000000000000000000000000000000000000000000000000000000000081525081600090805190602001906200009b929190620001ab565b508060019080519060200190620000b4929190620001ab565b505050620000d7620000cb620000dd60201b60201c565b620000e560201b60201c565b620002c0565b600033905090565b6000600b60009054906101000a900473ffffffffffffffffffffffffffffffffffffffff16905081600b60006101000a81548173ffffffffffffffffffffffffffffffffffffffff021916908373ffffffffffffffffffffffffffffffffffffffff1602179055508173ffffffffffffffffffffffffffffffffffffffff168173ffffffffffffffffffffffffffffffffffffffff167f8be0079c531659141344cd1fd0a4f28419497f9722a3daafe3b4186f6b6457e060405160405180910390a35050565b828054620001b9906200028a565b90600052602060002090601f016020900481019282620001dd576000855562000229565b82601f10620001f857805160ff191683800117855562000229565b8280016001018555821562000229579182015b82811115620002285782518255916020019190600101906200020b565b5b5090506200023891906200023c565b5090565b5b80821115620002575760008160009055506001016200023d565b5090565b7f4e487b7100000000000000000000000000000000000000000000000000000000600052602260045260246000fd5b60006002820490506001821680620002a357607f821691505b60208210811415620002ba57620002b96200025b565b5b50919050565b61387980620002d06000396000f3fe608060405234801561001057600080fd5b50600436106101425760003560e01c806370a08231116100b8578063a2cf7e1b1161007c578063a2cf7e1b14610377578063b88d4fde14610393578063c87b56dd146103af578063d204c45e146103df578063e985e9c5146103fb578063f2fde38b1461042b57610142565b806370a08231146102e5578063715018a6146103155780638da5cb5b1461031f57806395d89b411461033d578063a22cb4651461035b57610142565b806323b872dd1161010a57806323b872dd146101ff5780632f745c591461021b57806332cb6b0c1461024b57806342842e0e146102695780634f6ccce7146102855780636352211e146102b557610142565b806301ffc9a71461014757806306fdde0314610177578063081812fc14610195578063095ea7b3146101c557806318160ddd146101e1575b600080fd5b610161600480360381019061015c9190612533565b610447565b60405161016e919061257b565b60405180910390f35b61017f610459565b60405161018c919061262f565b60405180910390f35b6101af60048036038101906101aa9190612687565b6104eb565b6040516101bc91906126f5565b60405180910390f35b6101df60048036038101906101da919061273c565b610531565b005b6101e9610649565b6040516101f6919061278b565b60405180910390f35b610219600480360381019061021491906127a6565b610656565b005b6102356004803603810190610230919061273c565b6106b6565b604051610242919061278b565b60405180910390f35b61025361075b565b604051610260919061278b565b60405180910390f35b610283600480360381019061027e91906127a6565b610761565b005b61029f600480360381019061029a9190612687565b610781565b6040516102ac919061278b565b60405180910390f35b6102cf60048036038101906102ca9190612687565b6107f2565b6040516102dc91906126f5565b60405180910390f35b6102ff60048036038101906102fa91906127f9565b610879565b60405161030c919061278b565b60405180910390f35b61031d610931565b005b610327610945565b60405161033491906126f5565b60405180910390f35b61034561096f565b604051610352919061262f565b60405180910390f35b61037560048036038101906103709190612852565b610a01565b005b610391600480360381019061038c91906129c7565b610a17565b005b6103ad60048036038101906103a89190612ac4565b610a75565b005b6103c960048036038101906103c49190612687565b610ad7565b6040516103d6919061262f565b60405180910390f35b6103f960048036038101906103f49190612b47565b610ae9565b005b61041560048036038101906104109190612ba3565b610b5e565b604051610422919061257b565b60405180910390f35b610445600480360381019061044091906127f9565b610bf2565b005b600061045282610c76565b9050919050565b60606000805461046890612c12565b80601f016020809104026020016040519081016040528092919081815260200182805461049490612c12565b80156104e15780601f106104b6576101008083540402835291602001916104e1565b820191906000526020600020905b8154815290600101906020018083116104c457829003601f168201915b5050505050905090565b60006104f682610cd7565b6004600083815260200190815260200160002060009054906101000a900473ffffffffffffffffffffffffffffffffffffffff169050919050565b600061053c826107f2565b90508073ffffffffffffffffffffffffffffffffffffffff168373ffffffffffffffffffffffffffffffffffffffff1614156105ad576040517f08c379a00000000000000000000000000000000000000000000000000000000081526004016105a490612cb6565b60405180910390fd5b8073ffffffffffffffffffffffffffffffffffffffff166105cc610d22565b73ffffffffffffffffffffffffffffffffffffffff1614806105fb57506105fa816105f5610d22565b610b5e565b5b61063a576040517f08c379a000000000000000000000000000000000000000000000000000000000815260040161063190612d48565b60405180910390fd5b6106448383610d2a565b505050565b6000600880549050905090565b610667610661610d22565b82610de3565b6106a6576040517f08c379a000000000000000000000000000000000000000000000000000000000815260040161069d90612dda565b60405180910390fd5b6106b1838383610e78565b505050565b60006106c183610879565b8210610702576040517f08c379a00000000000000000000000000000000000000000000000000000000081526004016106f990612e6c565b60405180910390fd5b600660008473ffffffffffffffffffffffffffffffffffffffff1673ffffffffffffffffffffffffffffffffffffffff168152602001908152602001600020600083815260200190815260200160002054905092915050565b600d5481565b61077c83838360405180602001604052806000815250610a75565b505050565b600061078b610649565b82106107cc576040517f08c379a00000000000000000000000000000000000000000000000000000000081526004016107c390612efe565b60405180910390fd5b600882815481106107e0576107df612f1e565b5b90600052602060002001549050919050565b6000806107fe83611172565b9050600073ffffffffffffffffffffffffffffffffffffffff168173ffffffffffffffffffffffffffffffffffffffff161415610870576040517f08c379a000000000000000000000000000000000000000000000000000000000815260040161086790612f99565b60405180910390fd5b80915050919050565b60008073ffffffffffffffffffffffffffffffffffffffff168273ffffffffffffffffffffffffffffffffffffffff1614156108ea576040517f08c379a00000000000000000000000000000000000000000000000000000000081526004016108e19061302b565b60405180910390fd5b600360008373ffffffffffffffffffffffffffffffffffffffff1673ffffffffffffffffffffffffffffffffffffffff168152602001908152602001600020549050919050565b6109396111af565b610943600061122d565b565b6000600b60009054906101000a900473ffffffffffffffffffffffffffffffffffffffff16905090565b60606001805461097e90612c12565b80601f01602080910402602001604051908101604052809291908181526020018280546109aa90612c12565b80156109f75780601f106109cc576101008083540402835291602001916109f7565b820191906000526020600020905b8154815290600101906020018083116109da57829003601f168201915b5050505050905090565b610a13610a0c610d22565b83836112f3565b5050565b610a1f6111af565b610a2882611460565b610a67576040517f08c379a0000000000000000000000000000000000000000000000000000000008152600401610a5e90613097565b60405180910390fd5b610a7182826114a1565b5050565b610a86610a80610d22565b83610de3565b610ac5576040517f08c379a0000000000000000000000000000000000000000000000000000000008152600401610abc90612dda565b60405180910390fd5b610ad18484848461154c565b50505050565b6060610ae2826115a8565b9050919050565b6000610af5600c6116bb565b9050600d548110610b3b576040517f08c379a0000000000000000000000000000000000000000000000000000000008152600401610b3290613103565b60405180910390fd5b610b45600c6116c9565b610b4f83826116df565b610b5981836114a1565b505050565b6000600560008473ffffffffffffffffffffffffffffffffffffffff1673ffffffffffffffffffffffffffffffffffffffff16815260200190815260200160002060008373ffffffffffffffffffffffffffffffffffffffff1673ffffffffffffffffffffffffffffffffffffffff16815260200190815260200160002060009054906101000a900460ff16905092915050565b610bfa6111af565b600073ffffffffffffffffffffffffffffffffffffffff168173ffffffffffffffffffffffffffffffffffffffff161415610c6a576040517f08c379a0000000000000000000000000000000000000000000000000000000008152600401610c6190613195565b60405180910390fd5b610c738161122d565b50565b6000634906490660e01b7bffffffffffffffffffffffffffffffffffffffffffffffffffffffff1916827bffffffffffffffffffffffffffffffffffffffffffffffffffffffff19161480610cd05750610ccf826116fd565b5b9050919050565b610ce081611460565b610d1f576040517f08c379a0000000000000000000000000000000000000000000000000000000008152600401610d1690612f99565b60405180910390fd5b50565b600033905090565b816004600083815260200190815260200160002060006101000a81548173ffffffffffffffffffffffffffffffffffffffff021916908373ffffffffffffffffffffffffffffffffffffffff160217905550808273ffffffffffffffffffffffffffffffffffffffff16610d9d836107f2565b73ffffffffffffffffffffffffffffffffffffffff167f8c5be1e5ebec7d5bd14f71427d1e84f3dd0314c0f7b2291e5b200ac8c7c3b92560405160405180910390a45050565b600080610def836107f2565b90508073ffffffffffffffffffffffffffffffffffffffff168473ffffffffffffffffffffffffffffffffffffffff161480610e315750610e308185610b5e565b5b80610e6f57508373ffffffffffffffffffffffffffffffffffffffff16610e57846104eb565b73ffffffffffffffffffffffffffffffffffffffff16145b91505092915050565b8273ffffffffffffffffffffffffffffffffffffffff16610e98826107f2565b73ffffffffffffffffffffffffffffffffffffffff1614610eee576040517f08c379a0000000000000000000000000000000000000000000000000000000008152600401610ee590613227565b60405180910390fd5b600073ffffffffffffffffffffffffffffffffffffffff168273ffffffffffffffffffffffffffffffffffffffff161415610f5e576040517f08c379a0000000000000000000000000000000000000000000000000000000008152600401610f55906132b9565b60405180910390fd5b610f6b8383836001611777565b8273ffffffffffffffffffffffffffffffffffffffff16610f8b826107f2565b73ffffffffffffffffffffffffffffffffffffffff1614610fe1576040517f08c379a0000000000000000000000000000000000000000000000000000000008152600401610fd890613227565b60405180910390fd5b6004600082815260200190815260200160002060006101000a81549073ffffffffffffffffffffffffffffffffffffffff02191690556001600360008573ffffffffffffffffffffffffffffffffffffffff1673ffffffffffffffffffffffffffffffffffffffff168152602001908152602001600020600082825403925050819055506001600360008473ffffffffffffffffffffffffffffffffffffffff1673ffffffffffffffffffffffffffffffffffffffff16815260200190815260200160002060008282540192505081905550816002600083815260200190815260200160002060006101000a81548173ffffffffffffffffffffffffffffffffffffffff021916908373ffffffffffffffffffffffffffffffffffffffff160217905550808273ffffffffffffffffffffffffffffffffffffffff168473ffffffffffffffffffffffffffffffffffffffff167fddf252ad1be2c89b69c2b068fc378daa952ba7f163c4a11628f55a4df523b3ef60405160405180910390a461116d8383836001611789565b505050565b60006002600083815260200190815260200160002060009054906101000a900473ffffffffffffffffffffffffffffffffffffffff169050919050565b6111b7610d22565b73ffffffffffffffffffffffffffffffffffffffff166111d5610945565b73ffffffffffffffffffffffffffffffffffffffff161461122b576040517f08c379a000000000000000000000000000000000000000000000000000000000815260040161122290613325565b60405180910390fd5b565b6000600b60009054906101000a900473ffffffffffffffffffffffffffffffffffffffff16905081600b60006101000a81548173ffffffffffffffffffffffffffffffffffffffff021916908373ffffffffffffffffffffffffffffffffffffffff1602179055508173ffffffffffffffffffffffffffffffffffffffff168173ffffffffffffffffffffffffffffffffffffffff167f8be0079c531659141344cd1fd0a4f28419497f9722a3daafe3b4186f6b6457e060405160405180910390a35050565b8173ffffffffffffffffffffffffffffffffffffffff168373ffffffffffffffffffffffffffffffffffffffff161415611362576040517f08c379a000000000000000000000000000000000000000000000000000000000815260040161135990613391565b60405180910390fd5b80600560008573ffffffffffffffffffffffffffffffffffffffff1673ffffffffffffffffffffffffffffffffffffffff16815260200190815260200160002060008473ffffffffffffffffffffffffffffffffffffffff1673ffffffffffffffffffffffffffffffffffffffff16815260200190815260200160002060006101000a81548160ff0219169083151502179055508173ffffffffffffffffffffffffffffffffffffffff168373ffffffffffffffffffffffffffffffffffffffff167f17307eab39ab6107e8899845ad3d59bd9653f200f220920489ca2b5937696c3183604051611453919061257b565b60405180910390a3505050565b60008073ffffffffffffffffffffffffffffffffffffffff1661148283611172565b73ffffffffffffffffffffffffffffffffffffffff1614159050919050565b6114aa82611460565b6114e9576040517f08c379a00000000000000000000000000000000000000000000000000000000081526004016114e090613423565b60405180910390fd5b80600a60008481526020019081526020016000209080519060200190611510929190612424565b507ff8e1a15aba9398e019f0b49df1a4fde98ee17ae345cb5f6b5e2c27f5033e8ce782604051611540919061278b565b60405180910390a15050565b611557848484610e78565b6115638484848461178f565b6115a2576040517f08c379a0000000000000000000000000000000000000000000000000000000008152600401611599906134b5565b60405180910390fd5b50505050565b60606115b382610cd7565b6000600a600084815260200190815260200160002080546115d390612c12565b80601f01602080910402602001604051908101604052809291908181526020018280546115ff90612c12565b801561164c5780601f106116215761010080835404028352916020019161164c565b820191906000526020600020905b81548152906001019060200180831161162f57829003601f168201915b50505050509050600061165d611926565b90506000815114156116735781925050506116b6565b6000825111156116a8578082604051602001611690929190613511565b604051602081830303815290604052925050506116b6565b6116b18461193d565b925050505b919050565b600081600001549050919050565b6001816000016000828254019250508190555050565b6116f98282604051806020016040528060008152506119a5565b5050565b60007f780e9d63000000000000000000000000000000000000000000000000000000007bffffffffffffffffffffffffffffffffffffffffffffffffffffffff1916827bffffffffffffffffffffffffffffffffffffffffffffffffffffffff19161480611770575061176f82611a00565b5b9050919050565b61178384848484611ae2565b50505050565b50505050565b60006117b08473ffffffffffffffffffffffffffffffffffffffff16611c42565b15611919578373ffffffffffffffffffffffffffffffffffffffff1663150b7a026117d9610d22565b8786866040518563ffffffff1660e01b81526004016117fb949392919061358a565b602060405180830381600087803b15801561181557600080fd5b505af192505050801561184657506040513d601f19601f8201168201806040525081019061184391906135eb565b60015b6118c9573d8060008114611876576040519150601f19603f3d011682016040523d82523d6000602084013e61187b565b606091505b506000815114156118c1576040517f08c379a00000000000000000000000000000000000000000000000000000000081526004016118b8906134b5565b60405180910390fd5b805181602001fd5b63150b7a0260e01b7bffffffffffffffffffffffffffffffffffffffffffffffffffffffff1916817bffffffffffffffffffffffffffffffffffffffffffffffffffffffff19161491505061191e565b600190505b949350505050565b606060405180602001604052806000815250905090565b606061194882610cd7565b6000611952611926565b90506000815111611972576040518060200160405280600081525061199d565b8061197c84611c65565b60405160200161198d929190613511565b6040516020818303038152906040525b915050919050565b6119af8383611d3d565b6119bc600084848461178f565b6119fb576040517f08c379a00000000000000000000000000000000000000000000000000000000081526004016119f2906134b5565b60405180910390fd5b505050565b60007f80ac58cd000000000000000000000000000000000000000000000000000000007bffffffffffffffffffffffffffffffffffffffffffffffffffffffff1916827bffffffffffffffffffffffffffffffffffffffffffffffffffffffff19161480611acb57507f5b5e139f000000000000000000000000000000000000000000000000000000007bffffffffffffffffffffffffffffffffffffffffffffffffffffffff1916827bffffffffffffffffffffffffffffffffffffffffffffffffffffffff1916145b80611adb5750611ada82611f5b565b5b9050919050565b611aee84848484611fc5565b6001811115611b32576040517f08c379a0000000000000000000000000000000000000000000000000000000008152600401611b299061368a565b60405180910390fd5b6000829050600073ffffffffffffffffffffffffffffffffffffffff168573ffffffffffffffffffffffffffffffffffffffff161415611b7a57611b7581611fcb565b611bb9565b8373ffffffffffffffffffffffffffffffffffffffff168573ffffffffffffffffffffffffffffffffffffffff1614611bb857611bb78582612014565b5b5b600073ffffffffffffffffffffffffffffffffffffffff168473ffffffffffffffffffffffffffffffffffffffff161415611bfc57611bf781612181565b611c3b565b8473ffffffffffffffffffffffffffffffffffffffff168473ffffffffffffffffffffffffffffffffffffffff1614611c3a57611c398482612252565b5b5b5050505050565b6000808273ffffffffffffffffffffffffffffffffffffffff163b119050919050565b606060006001611c74846122d1565b01905060008167ffffffffffffffff811115611c9357611c9261289c565b5b6040519080825280601f01601f191660200182016040528015611cc55781602001600182028036833780820191505090505b509050600082602001820190505b600115611d32578080600190039150507f3031323334353637383961626364656600000000000000000000000000000000600a86061a8153600a8581611d1c57611d1b6136aa565b5b0494506000851415611d2d57611d32565b611cd3565b819350505050919050565b600073ffffffffffffffffffffffffffffffffffffffff168273ffffffffffffffffffffffffffffffffffffffff161415611dad576040517f08c379a0000000000000000000000000000000000000000000000000000000008152600401611da490613725565b60405180910390fd5b611db681611460565b15611df6576040517f08c379a0000000000000000000000000000000000000000000000000000000008152600401611ded90613791565b60405180910390fd5b611e04600083836001611777565b611e0d81611460565b15611e4d576040517f08c379a0000000000000000000000000000000000000000000000000000000008152600401611e4490613791565b60405180910390fd5b6001600360008473ffffffffffffffffffffffffffffffffffffffff1673ffffffffffffffffffffffffffffffffffffffff16815260200190815260200160002060008282540192505081905550816002600083815260200190815260200160002060006101000a81548173ffffffffffffffffffffffffffffffffffffffff021916908373ffffffffffffffffffffffffffffffffffffffff160217905550808273ffffffffffffffffffffffffffffffffffffffff16600073ffffffffffffffffffffffffffffffffffffffff167fddf252ad1be2c89b69c2b068fc378daa952ba7f163c4a11628f55a4df523b3ef60405160405180910390a4611f57600083836001611789565b5050565b60007f01ffc9a7000000000000000000000000000000000000000000000000000000007bffffffffffffffffffffffffffffffffffffffffffffffffffffffff1916827bffffffffffffffffffffffffffffffffffffffffffffffffffffffff1916149050919050565b50505050565b6008805490506009600083815260200190815260200160002081905550600881908060018154018082558091505060019003906000526020600020016000909190919091505550565b6000600161202184610879565b61202b91906137e0565b9050600060076000848152602001908152602001600020549050818114612110576000600660008673ffffffffffffffffffffffffffffffffffffffff1673ffffffffffffffffffffffffffffffffffffffff168152602001908152602001600020600084815260200190815260200160002054905080600660008773ffffffffffffffffffffffffffffffffffffffff1673ffffffffffffffffffffffffffffffffffffffff168152602001908152602001600020600084815260200190815260200160002081905550816007600083815260200190815260200160002081905550505b6007600084815260200190815260200160002060009055600660008573ffffffffffffffffffffffffffffffffffffffff1673ffffffffffffffffffffffffffffffffffffffff16815260200190815260200160002060008381526020019081526020016000206000905550505050565b6000600160088054905061219591906137e0565b90506000600960008481526020019081526020016000205490506000600883815481106121c5576121c4612f1e565b5b9060005260206000200154905080600883815481106121e7576121e6612f1e565b5b90600052602060002001819055508160096000838152602001908152602001600020819055506009600085815260200190815260200160002060009055600880548061223657612235613814565b5b6001900381819060005260206000200160009055905550505050565b600061225d83610879565b905081600660008573ffffffffffffffffffffffffffffffffffffffff1673ffffffffffffffffffffffffffffffffffffffff168152602001908152602001600020600083815260200190815260200160002081905550806007600084815260200190815260200160002081905550505050565b600080600090507a184f03e93ff9f4daa797ed6e38ed64bf6a1f010000000000000000831061232f577a184f03e93ff9f4daa797ed6e38ed64bf6a1f0100000000000000008381612325576123246136aa565b5b0492506040810190505b6d04ee2d6d415b85acef8100000000831061236c576d04ee2d6d415b85acef81000000008381612362576123616136aa565b5b0492506020810190505b662386f26fc10000831061239b57662386f26fc100008381612391576123906136aa565b5b0492506010810190505b6305f5e10083106123c4576305f5e10083816123ba576123b96136aa565b5b0492506008810190505b61271083106123e95761271083816123df576123de6136aa565b5b0492506004810190505b6064831061240c5760648381612402576124016136aa565b5b0492506002810190505b600a831061241b576001810190505b80915050919050565b82805461243090612c12565b90600052602060002090601f0160209004810192826124525760008555612499565b82601f1061246b57805160ff1916838001178555612499565b82800160010185558215612499579182015b8281111561249857825182559160200191906001019061247d565b5b5090506124a691906124aa565b5090565b5b808211156124c35760008160009055506001016124ab565b5090565b6000604051905090565b600080fd5b600080fd5b60007fffffffff0000000000000000000000000000000000000000000000000000000082169050919050565b612510816124db565b811461251b57600080fd5b50565b60008135905061252d81612507565b92915050565b600060208284031215612549576125486124d1565b5b60006125578482850161251e565b91505092915050565b60008115159050919050565b61257581612560565b82525050565b6000602082019050612590600083018461256c565b92915050565b600081519050919050565b600082825260208201905092915050565b60005b838110156125d05780820151818401526020810190506125b5565b838111156125df576000848401525b50505050565b6000601f19601f8301169050919050565b600061260182612596565b61260b81856125a1565b935061261b8185602086016125b2565b612624816125e5565b840191505092915050565b6000602082019050818103600083015261264981846125f6565b905092915050565b6000819050919050565b61266481612651565b811461266f57600080fd5b50565b6000813590506126818161265b565b92915050565b60006020828403121561269d5761269c6124d1565b5b60006126ab84828501612672565b91505092915050565b600073ffffffffffffffffffffffffffffffffffffffff82169050919050565b60006126df826126b4565b9050919050565b6126ef816126d4565b82525050565b600060208201905061270a60008301846126e6565b92915050565b612719816126d4565b811461272457600080fd5b50565b60008135905061273681612710565b92915050565b60008060408385031215612753576127526124d1565b5b600061276185828601612727565b925050602061277285828601612672565b9150509250929050565b61278581612651565b82525050565b60006020820190506127a0600083018461277c565b92915050565b6000806000606084860312156127bf576127be6124d1565b5b60006127cd86828701612727565b93505060206127de86828701612727565b92505060406127ef86828701612672565b9150509250925092565b60006020828403121561280f5761280e6124d1565b5b600061281d84828501612727565b91505092915050565b61282f81612560565b811461283a57600080fd5b50565b60008135905061284c81612826565b92915050565b60008060408385031215612869576128686124d1565b5b600061287785828601612727565b92505060206128888582860161283d565b9150509250929050565b600080fd5b600080fd5b7f4e487b7100000000000000000000000000000000000000000000000000000000600052604160045260246000fd5b6128d4826125e5565b810181811067ffffffffffffffff821117156128f3576128f261289c565b5b80604052505050565b60006129066124c7565b905061291282826128cb565b919050565b600067ffffffffffffffff8211156129325761293161289c565b5b61293b826125e5565b9050602081019050919050565b82818337600083830152505050565b600061296a61296584612917565b6128fc565b90508281526020810184848401111561298657612985612897565b5b612991848285612948565b509392505050565b600082601f8301126129ae576129ad612892565b5b81356129be848260208601612957565b91505092915050565b600080604083850312156129de576129dd6124d1565b5b60006129ec85828601612672565b925050602083013567ffffffffffffffff811115612a0d57612a0c6124d6565b5b612a1985828601612999565b9150509250929050565b600067ffffffffffffffff821115612a3e57612a3d61289c565b5b612a47826125e5565b9050602081019050919050565b6000612a67612a6284612a23565b6128fc565b905082815260208101848484011115612a8357612a82612897565b5b612a8e848285612948565b509392505050565b600082601f830112612aab57612aaa612892565b5b8135612abb848260208601612a54565b91505092915050565b60008060008060808587031215612ade57612add6124d1565b5b6000612aec87828801612727565b9450506020612afd87828801612727565b9350506040612b0e87828801612672565b925050606085013567ffffffffffffffff811115612b2f57612b2e6124d6565b5b612b3b87828801612a96565b91505092959194509250565b60008060408385031215612b5e57612b5d6124d1565b5b6000612b6c85828601612727565b925050602083013567ffffffffffffffff811115612b8d57612b8c6124d6565b5b612b9985828601612999565b9150509250929050565b60008060408385031215612bba57612bb96124d1565b5b6000612bc885828601612727565b9250506020612bd985828601612727565b9150509250929050565b7f4e487b7100000000000000000000000000000000000000000000000000000000600052602260045260246000fd5b60006002820490506001821680612c2a57607f821691505b60208210811415612c3e57612c3d612be3565b5b50919050565b7f4552433732313a20617070726f76616c20746f2063757272656e74206f776e6560008201527f7200000000000000000000000000000000000000000000000000000000000000602082015250565b6000612ca06021836125a1565b9150612cab82612c44565b604082019050919050565b60006020820190508181036000830152612ccf81612c93565b9050919050565b7f4552433732313a20617070726f76652063616c6c6572206973206e6f7420746f60008201527f6b656e206f776e6572206f7220617070726f76656420666f7220616c6c000000602082015250565b6000612d32603d836125a1565b9150612d3d82612cd6565b604082019050919050565b60006020820190508181036000830152612d6181612d25565b9050919050565b7f4552433732313a2063616c6c6572206973206e6f7420746f6b656e206f776e6560008201527f72206f7220617070726f76656400000000000000000000000000000000000000602082015250565b6000612dc4602d836125a1565b9150612dcf82612d68565b604082019050919050565b60006020820190508181036000830152612df381612db7565b9050919050565b7f455243373231456e756d657261626c653a206f776e657220696e646578206f7560008201527f74206f6620626f756e6473000000000000000000000000000000000000000000602082015250565b6000612e56602b836125a1565b9150612e6182612dfa565b604082019050919050565b60006020820190508181036000830152612e8581612e49565b9050919050565b7f455243373231456e756d657261626c653a20676c6f62616c20696e646578206f60008201527f7574206f6620626f756e64730000000000000000000000000000000000000000602082015250565b6000612ee8602c836125a1565b9150612ef382612e8c565b604082019050919050565b60006020820190508181036000830152612f1781612edb565b9050919050565b7f4e487b7100000000000000000000000000000000000000000000000000000000600052603260045260246000fd5b7f4552433732313a20696e76616c696420746f6b656e2049440000000000000000600082015250565b6000612f836018836125a1565b9150612f8e82612f4d565b602082019050919050565b60006020820190508181036000830152612fb281612f76565b9050919050565b7f4552433732313a2061646472657373207a65726f206973206e6f74206120766160008201527f6c6964206f776e65720000000000000000000000000000000000000000000000602082015250565b60006130156029836125a1565b915061302082612fb9565b604082019050919050565b6000602082019050818103600083015261304481613008565b9050919050565b7f546f6b656e20646f6573206e6f74206578697374000000000000000000000000600082015250565b60006130816014836125a1565b915061308c8261304b565b602082019050919050565b600060208201905081810360008301526130b081613074565b9050919050565b7f536f7272792c20416c6c204e46542068617665206265656e206d696e74656400600082015250565b60006130ed601f836125a1565b91506130f8826130b7565b602082019050919050565b6000602082019050818103600083015261311c816130e0565b9050919050565b7f4f776e61626c653a206e6577206f776e657220697320746865207a65726f206160008201527f6464726573730000000000000000000000000000000000000000000000000000602082015250565b600061317f6026836125a1565b915061318a82613123565b604082019050919050565b600060208201905081810360008301526131ae81613172565b9050919050565b7f4552433732313a207472616e736665722066726f6d20696e636f72726563742060008201527f6f776e6572000000000000000000000000000000000000000000000000000000602082015250565b60006132116025836125a1565b915061321c826131b5565b604082019050919050565b6000602082019050818103600083015261324081613204565b9050919050565b7f4552433732313a207472616e7366657220746f20746865207a65726f2061646460008201527f7265737300000000000000000000000000000000000000000000000000000000602082015250565b60006132a36024836125a1565b91506132ae82613247565b604082019050919050565b600060208201905081810360008301526132d281613296565b9050919050565b7f4f776e61626c653a2063616c6c6572206973206e6f7420746865206f776e6572600082015250565b600061330f6020836125a1565b915061331a826132d9565b602082019050919050565b6000602082019050818103600083015261333e81613302565b9050919050565b7f4552433732313a20617070726f766520746f2063616c6c657200000000000000600082015250565b600061337b6019836125a1565b915061338682613345565b602082019050919050565b600060208201905081810360008301526133aa8161336e565b9050919050565b7f45524337323155524953746f726167653a2055524920736574206f66206e6f6e60008201527f6578697374656e7420746f6b656e000000000000000000000000000000000000602082015250565b600061340d602e836125a1565b9150613418826133b1565b604082019050919050565b6000602082019050818103600083015261343c81613400565b9050919050565b7f4552433732313a207472616e7366657220746f206e6f6e20455243373231526560008201527f63656976657220696d706c656d656e7465720000000000000000000000000000602082015250565b600061349f6032836125a1565b91506134aa82613443565b604082019050919050565b600060208201905081810360008301526134ce81613492565b9050919050565b600081905092915050565b60006134eb82612596565b6134f581856134d5565b93506135058185602086016125b2565b80840191505092915050565b600061351d82856134e0565b915061352982846134e0565b91508190509392505050565b600081519050919050565b600082825260208201905092915050565b600061355c82613535565b6135668185613540565b93506135768185602086016125b2565b61357f816125e5565b840191505092915050565b600060808201905061359f60008301876126e6565b6135ac60208301866126e6565b6135b9604083018561277c565b81810360608301526135cb8184613551565b905095945050505050565b6000815190506135e581612507565b92915050565b600060208284031215613601576136006124d1565b5b600061360f848285016135d6565b91505092915050565b7f455243373231456e756d657261626c653a20636f6e736563757469766520747260008201527f616e7366657273206e6f7420737570706f727465640000000000000000000000602082015250565b60006136746035836125a1565b915061367f82613618565b604082019050919050565b600060208201905081810360008301526136a381613667565b9050919050565b7f4e487b7100000000000000000000000000000000000000000000000000000000600052601260045260246000fd5b7f4552433732313a206d696e7420746f20746865207a65726f2061646472657373600082015250565b600061370f6020836125a1565b915061371a826136d9565b602082019050919050565b6000602082019050818103600083015261373e81613702565b9050919050565b7f4552433732313a20746f6b656e20616c7265616479206d696e74656400000000600082015250565b600061377b601c836125a1565b915061378682613745565b602082019050919050565b600060208201905081810360008301526137aa8161376e565b9050919050565b7f4e487b7100000000000000000000000000000000000000000000000000000000600052601160045260246000fd5b60006137eb82612651565b91506137f683612651565b925082821015613809576138086137b1565b5b828203905092915050565b7f4e487b7100000000000000000000000000000000000000000000000000000000600052603160045260246000fdfea2646970667358221220f6a5cd11bc2407c1ca3746b9971bce2f4c7ee030436ea2b94db68d179cd54a6964736f6c63430008090033",
  "linkReferences": {},
  "deployedLinkReferences": {}
}