{
  "_format": "hh-sol-artifact-1",
  "contractName": "NFTMarketplace",
  "sourceName": "contracts/SellNFTContract.sol",
  "abi": [
    {
      "inputs": [
        {
          "internalType": "address",
          "name": "_nftContractAddress",
          "type": "address"
        },
        {
          "internalType": "uint256",
          "name": "_royaltyPercentage",
          "type": "uint256"
        }
      ],
      "stateMutability": "payable",
      "type": "constructor"
    },
    {
      "anonymous": false,
      "inputs": [
        {
          "indexed": true,
          "internalType": "address",
          "name": "seller",
          "type": "address"
        },
        {
          "indexed": true,
          "internalType": "uint256",
          "name": "tokenId",
          "type": "uint256"
        },
        {
          "indexed": false,
          "internalType": "uint256",
          "name": "price",
          "type": "uint256"
        }
      ],
      "name": "NftListed",
      "type": "event"
    },
    {
      "anonymous": false,
      "inputs": [
        {
          "indexed": true,
          "internalType": "address",
          "name": "seller",
          "type": "address"
        },
        {
          "indexed": true,
          "internalType": "address",
          "name": "buyer",
          "type": "address"
        },
        {
          "indexed": true,
          "internalType": "uint256",
          "name": "tokenId",
          "type": "uint256"
        },
        {
          "indexed": false,
          "internalType": "uint256",
          "name": "price",
          "type": "uint256"
        }
      ],
      "name": "NftSold",
      "type": "event"
    },
    {
      "anonymous": false,
      "inputs": [
        {
          "indexed": true,
          "internalType": "address",
          "name": "seller",
          "type": "address"
        },
        {
          "indexed": true,
          "internalType": "uint256",
          "name": "tokenId",
          "type": "uint256"
        },
        {
          "indexed": false,
          "internalType": "uint256",
          "name": "royaltyFee",
          "type": "uint256"
        }
      ],
      "name": "RoyaltyFeeCalculated",
      "type": "event"
    },
    {
      "inputs": [
        {
          "internalType": "uint256",
          "name": "_tokenId",
          "type": "uint256"
        },
        {
          "internalType": "address",
          "name": "_seller",
          "type": "address"
        }
      ],
      "name": "approveSeller",
      "outputs": [],
      "stateMutability": "nonpayable",
      "type": "function"
    },
    {
      "inputs": [
        {
          "internalType": "uint256",
          "name": "",
          "type": "uint256"
        }
      ],
      "name": "approvedSellers",
      "outputs": [
        {
          "internalType": "address",
          "name": "",
          "type": "address"
        }
      ],
      "stateMutability": "view",
      "type": "function"
    },
    {
      "inputs": [
        {
          "internalType": "uint256",
          "name": "_listingIndex",
          "type": "uint256"
        }
      ],
      "name": "buyNFT",
      "outputs": [],
      "stateMutability": "payable",
      "type": "function"
    },
    {
      "inputs": [
        {
          "internalType": "uint256",
          "name": "_tokenId",
          "type": "uint256"
        },
        {
          "internalType": "uint256",
          "name": "_priceDecimal",
          "type": "uint256"
        }
      ],
      "name": "listNFT",
      "outputs": [],
      "stateMutability": "nonpayable",
      "type": "function"
    },
    {
      "inputs": [
        {
          "internalType": "uint256",
          "name": "",
          "type": "uint256"
        }
      ],
      "name": "nftListings",
      "outputs": [
        {
          "internalType": "address",
          "name": "seller",
          "type": "address"
        },
        {
          "internalType": "uint256",
          "name": "tokenId",
          "type": "uint256"
        },
        {
          "internalType": "uint256",
          "name": "price",
          "type": "uint256"
        }
      ],
      "stateMutability": "view",
      "type": "function"
    },
    {
      "inputs": [],
      "name": "owner",
      "outputs": [
        {
          "internalType": "address",
          "name": "",
          "type": "address"
        }
      ],
      "stateMutability": "view",
      "type": "function"
    },
    {
      "inputs": [
        {
          "internalType": "uint256",
          "name": "_tokenId",
          "type": "uint256"
        }
      ],
      "name": "removeSellerApproval",
      "outputs": [],
      "stateMutability": "nonpayable",
      "type": "function"
    },
    {
      "inputs": [],
      "name": "royaltyPercentage",
      "outputs": [
        {
          "internalType": "uint256",
          "name": "",
          "type": "uint256"
        }
      ],
      "stateMutability": "view",
      "type": "function"
    },
    {
      "inputs": [
        {
          "internalType": "uint256",
          "name": "_newRoyaltyPercentage",
          "type": "uint256"
        }
      ],
      "name": "setRoyaltyPercentage",
      "outputs": [],
      "stateMutability": "nonpayable",
      "type": "function"
    }
  ],
  "bytecode": "0x60806040526040516200124e3803806200124e83398181016040528101906200002991906200015e565b816000806101000a81548173ffffffffffffffffffffffffffffffffffffffff021916908373ffffffffffffffffffffffffffffffffffffffff16021790555033600160006101000a81548173ffffffffffffffffffffffffffffffffffffffff021916908373ffffffffffffffffffffffffffffffffffffffff160217905550806002819055505050620001a5565b600080fd5b600073ffffffffffffffffffffffffffffffffffffffff82169050919050565b6000620000eb82620000be565b9050919050565b620000fd81620000de565b81146200010957600080fd5b50565b6000815190506200011d81620000f2565b92915050565b6000819050919050565b620001388162000123565b81146200014457600080fd5b50565b60008151905062000158816200012d565b92915050565b60008060408385031215620001785762000177620000b9565b5b600062000188858286016200010c565b92505060206200019b8582860162000147565b9150509250929050565b61109980620001b56000396000f3fe6080604052600436106100865760003560e01c80638a71bb2d116100595780638a71bb2d1461014c5780638da5cb5b1461017757806394383f14146101a2578063acd25c18146101cb578063cc253a65146101f457610086565b80630c7620351461008b57806351ed8288146100c857806361ba27da146100e45780637c5bb03d1461010d575b600080fd5b34801561009757600080fd5b506100b260048036038101906100ad9190610a8f565b61021d565b6040516100bf9190610afd565b60405180910390f35b6100e260048036038101906100dd9190610a8f565b610250565b005b3480156100f057600080fd5b5061010b60048036038101906101069190610a8f565b61051f565b005b34801561011957600080fd5b50610134600480360381019061012f9190610a8f565b6105fd565b60405161014393929190610b27565b60405180910390f35b34801561015857600080fd5b50610161610657565b60405161016e9190610b5e565b60405180910390f35b34801561018357600080fd5b5061018c61065d565b6040516101999190610afd565b60405180910390f35b3480156101ae57600080fd5b506101c960048036038101906101c49190610b79565b610683565b005b3480156101d757600080fd5b506101f260048036038101906101ed9190610a8f565b6108a5565b005b34801561020057600080fd5b5061021b60048036038101906102169190610be5565b61096e565b005b60046020528060005260406000206000915054906101000a900473ffffffffffffffffffffffffffffffffffffffff1681565b60006003828154811061026657610265610c25565b5b90600052602060002090600302016040518060600160405290816000820160009054906101000a900473ffffffffffffffffffffffffffffffffffffffff1673ffffffffffffffffffffffffffffffffffffffff1673ffffffffffffffffffffffffffffffffffffffff1681526020016001820154815260200160028201548152505090508060400151341015610332576040517f08c379a000000000000000000000000000000000000000000000000000000000815260040161032990610cb1565b60405180910390fd5b806000015173ffffffffffffffffffffffffffffffffffffffff163373ffffffffffffffffffffffffffffffffffffffff1614156103a5576040517f08c379a000000000000000000000000000000000000000000000000000000000815260040161039c90610d1d565b60405180910390fd5b6000606460025483604001516103bb9190610d6c565b6103c59190610df5565b905060008183604001516103d99190610e26565b9050826000015173ffffffffffffffffffffffffffffffffffffffff166108fc829081150290604051600060405180830381858888f19350505050158015610425573d6000803e3d6000fd5b5060008054906101000a900473ffffffffffffffffffffffffffffffffffffffff1673ffffffffffffffffffffffffffffffffffffffff166342842e0e84600001513386602001516040518463ffffffff1660e01b815260040161048b93929190610e5a565b600060405180830381600087803b1580156104a557600080fd5b505af11580156104b9573d6000803e3d6000fd5b50505050600384815481106104d1576104d0610c25565b5b9060005260206000209060030201600080820160006101000a81549073ffffffffffffffffffffffffffffffffffffffff021916905560018201600090556002820160009055505050505050565b600160009054906101000a900473ffffffffffffffffffffffffffffffffffffffff1673ffffffffffffffffffffffffffffffffffffffff163373ffffffffffffffffffffffffffffffffffffffff16146105af576040517f08c379a00000000000000000000000000000000000000000000000000000000081526004016105a690610f03565b60405180910390fd5b60648111156105f3576040517f08c379a00000000000000000000000000000000000000000000000000000000081526004016105ea90610f95565b60405180910390fd5b8060028190555050565b6003818154811061060d57600080fd5b90600052602060002090600302016000915090508060000160009054906101000a900473ffffffffffffffffffffffffffffffffffffffff16908060010154908060020154905083565b60025481565b600160009054906101000a900473ffffffffffffffffffffffffffffffffffffffff1681565b3373ffffffffffffffffffffffffffffffffffffffff1660008054906101000a900473ffffffffffffffffffffffffffffffffffffffff1673ffffffffffffffffffffffffffffffffffffffff16636352211e846040518263ffffffff1660e01b81526004016106f39190610b5e565b60206040518083038186803b15801561070b57600080fd5b505afa15801561071f573d6000803e3d6000fd5b505050506040513d601f19601f820116820180604052508101906107439190610fca565b73ffffffffffffffffffffffffffffffffffffffff1614610799576040517f08c379a000000000000000000000000000000000000000000000000000000000815260040161079090611043565b60405180910390fd5b600360405180606001604052803373ffffffffffffffffffffffffffffffffffffffff16815260200184815260200183815250908060018154018082558091505060019003906000526020600020906003020160009091909190915060008201518160000160006101000a81548173ffffffffffffffffffffffffffffffffffffffff021916908373ffffffffffffffffffffffffffffffffffffffff16021790555060208201518160010155604082015181600201555050813373ffffffffffffffffffffffffffffffffffffffff167f8cb0963b04034c4c13b179fd8bc2a3e07a88cd6b5dd0f6bee0db0bfa04d41441836040516108999190610b5e565b60405180910390a35050565b600160009054906101000a900473ffffffffffffffffffffffffffffffffffffffff1673ffffffffffffffffffffffffffffffffffffffff163373ffffffffffffffffffffffffffffffffffffffff1614610935576040517f08c379a000000000000000000000000000000000000000000000000000000000815260040161092c90610f03565b60405180910390fd5b6004600082815260200190815260200160002060006101000a81549073ffffffffffffffffffffffffffffffffffffffff021916905550565b600160009054906101000a900473ffffffffffffffffffffffffffffffffffffffff1673ffffffffffffffffffffffffffffffffffffffff163373ffffffffffffffffffffffffffffffffffffffff16146109fe576040517f08c379a00000000000000000000000000000000000000000000000000000000081526004016109f590610f03565b60405180910390fd5b806004600084815260200190815260200160002060006101000a81548173ffffffffffffffffffffffffffffffffffffffff021916908373ffffffffffffffffffffffffffffffffffffffff1602179055505050565b600080fd5b6000819050919050565b610a6c81610a59565b8114610a7757600080fd5b50565b600081359050610a8981610a63565b92915050565b600060208284031215610aa557610aa4610a54565b5b6000610ab384828501610a7a565b91505092915050565b600073ffffffffffffffffffffffffffffffffffffffff82169050919050565b6000610ae782610abc565b9050919050565b610af781610adc565b82525050565b6000602082019050610b126000830184610aee565b92915050565b610b2181610a59565b82525050565b6000606082019050610b3c6000830186610aee565b610b496020830185610b18565b610b566040830184610b18565b949350505050565b6000602082019050610b736000830184610b18565b92915050565b60008060408385031215610b9057610b8f610a54565b5b6000610b9e85828601610a7a565b9250506020610baf85828601610a7a565b9150509250929050565b610bc281610adc565b8114610bcd57600080fd5b50565b600081359050610bdf81610bb9565b92915050565b60008060408385031215610bfc57610bfb610a54565b5b6000610c0a85828601610a7a565b9250506020610c1b85828601610bd0565b9150509250929050565b7f4e487b7100000000000000000000000000000000000000000000000000000000600052603260045260246000fd5b600082825260208201905092915050565b7f496e73756666696369656e742066756e64732073656e74000000000000000000600082015250565b6000610c9b601783610c54565b9150610ca682610c65565b602082019050919050565b60006020820190508181036000830152610cca81610c8e565b9050919050565b7f596f752063616e6e6f742062757920796f7572206f776e204e46540000000000600082015250565b6000610d07601b83610c54565b9150610d1282610cd1565b602082019050919050565b60006020820190508181036000830152610d3681610cfa565b9050919050565b7f4e487b7100000000000000000000000000000000000000000000000000000000600052601160045260246000fd5b6000610d7782610a59565b9150610d8283610a59565b9250817fffffffffffffffffffffffffffffffffffffffffffffffffffffffffffffffff0483118215151615610dbb57610dba610d3d565b5b828202905092915050565b7f4e487b7100000000000000000000000000000000000000000000000000000000600052601260045260246000fd5b6000610e0082610a59565b9150610e0b83610a59565b925082610e1b57610e1a610dc6565b5b828204905092915050565b6000610e3182610a59565b9150610e3c83610a59565b925082821015610e4f57610e4e610d3d565b5b828203905092915050565b6000606082019050610e6f6000830186610aee565b610e7c6020830185610aee565b610e896040830184610b18565b949350505050565b7f4f6e6c7920746865206f776e65722063616e2063616c6c20746869732066756e60008201527f6374696f6e000000000000000000000000000000000000000000000000000000602082015250565b6000610eed602583610c54565b9150610ef882610e91565b604082019050919050565b60006020820190508181036000830152610f1c81610ee0565b9050919050565b7f526f79616c74792070657263656e74616765206d757374206265203c3d20313060008201527f3000000000000000000000000000000000000000000000000000000000000000602082015250565b6000610f7f602183610c54565b9150610f8a82610f23565b604082019050919050565b60006020820190508181036000830152610fae81610f72565b9050919050565b600081519050610fc481610bb9565b92915050565b600060208284031215610fe057610fdf610a54565b5b6000610fee84828501610fb5565b91505092915050565b7f4f6e6c7920746865206f776e65722063616e206c6973742074686973204e4654600082015250565b600061102d602083610c54565b915061103882610ff7565b602082019050919050565b6000602082019050818103600083015261105c81611020565b905091905056fea264697066735822122092245c860750db2dd95fbfd46e7c84408d95b44ce72be16118cb98ef15de814464736f6c63430008090033",
  "linkReferences": {},
  "deployedLinkReferences": {}
}