{
  "_format": "hh-sol-artifact-1",
  "contractName": "NFTMarketplace",
  "sourceName": "contracts/SellNFTContract.sol",
  "abi": [
    {
      "inputs": [
        {
          "internalType": "address",
          "name": "_nftContractAddress",
          "type": "address"
        },
        {
          "internalType": "uint256",
          "name": "_royaltyPercentage",
          "type": "uint256"
        }
      ],
      "stateMutability": "payable",
      "type": "constructor"
    },
    {
      "anonymous": false,
      "inputs": [
        {
          "indexed": true,
          "internalType": "address",
          "name": "seller",
          "type": "address"
        },
        {
          "indexed": true,
          "internalType": "uint256",
          "name": "tokenId",
          "type": "uint256"
        },
        {
          "indexed": false,
          "internalType": "uint256",
          "name": "price",
          "type": "uint256"
        }
      ],
      "name": "NftListed",
      "type": "event"
    },
    {
      "anonymous": false,
      "inputs": [
        {
          "indexed": true,
          "internalType": "address",
          "name": "seller",
          "type": "address"
        },
        {
          "indexed": true,
          "internalType": "address",
          "name": "buyer",
          "type": "address"
        },
        {
          "indexed": true,
          "internalType": "uint256",
          "name": "tokenId",
          "type": "uint256"
        },
        {
          "indexed": false,
          "internalType": "uint256",
          "name": "price",
          "type": "uint256"
        }
      ],
      "name": "NftSold",
      "type": "event"
    },
    {
      "inputs": [
        {
          "internalType": "uint256",
          "name": "_tokenId",
          "type": "uint256"
        },
        {
          "internalType": "address",
          "name": "_seller",
          "type": "address"
        }
      ],
      "name": "approveSeller",
      "outputs": [],
      "stateMutability": "nonpayable",
      "type": "function"
    },
    {
      "inputs": [
        {
          "internalType": "uint256",
          "name": "",
          "type": "uint256"
        }
      ],
      "name": "approvedSellers",
      "outputs": [
        {
          "internalType": "address",
          "name": "",
          "type": "address"
        }
      ],
      "stateMutability": "view",
      "type": "function"
    },
    {
      "inputs": [
        {
          "internalType": "uint256",
          "name": "_listingIndex",
          "type": "uint256"
        }
      ],
      "name": "buyNFT",
      "outputs": [],
      "stateMutability": "payable",
      "type": "function"
    },
    {
      "inputs": [
        {
          "internalType": "uint256",
          "name": "_tokenId",
          "type": "uint256"
        },
        {
          "internalType": "uint256",
          "name": "_price",
          "type": "uint256"
        }
      ],
      "name": "listNFT",
      "outputs": [],
      "stateMutability": "nonpayable",
      "type": "function"
    },
    {
      "inputs": [
        {
          "internalType": "uint256",
          "name": "",
          "type": "uint256"
        }
      ],
      "name": "nftListings",
      "outputs": [
        {
          "internalType": "address",
          "name": "seller",
          "type": "address"
        },
        {
          "internalType": "uint256",
          "name": "tokenId",
          "type": "uint256"
        },
        {
          "internalType": "uint256",
          "name": "price",
          "type": "uint256"
        }
      ],
      "stateMutability": "view",
      "type": "function"
    },
    {
      "inputs": [],
      "name": "owner",
      "outputs": [
        {
          "internalType": "address",
          "name": "",
          "type": "address"
        }
      ],
      "stateMutability": "view",
      "type": "function"
    },
    {
      "inputs": [
        {
          "internalType": "uint256",
          "name": "_tokenId",
          "type": "uint256"
        }
      ],
      "name": "removeSellerApproval",
      "outputs": [],
      "stateMutability": "nonpayable",
      "type": "function"
    },
    {
      "inputs": [],
      "name": "royaltyPercentage",
      "outputs": [
        {
          "internalType": "uint256",
          "name": "",
          "type": "uint256"
        }
      ],
      "stateMutability": "view",
      "type": "function"
    },
    {
      "inputs": [
        {
          "internalType": "uint256",
          "name": "_newRoyaltyPercentage",
          "type": "uint256"
        }
      ],
      "name": "setRoyaltyPercentage",
      "outputs": [],
      "stateMutability": "nonpayable",
      "type": "function"
    }
  ],
  "bytecode": "0x6080604052604051620012ba380380620012ba83398181016040528101906200002991906200015e565b816000806101000a81548173ffffffffffffffffffffffffffffffffffffffff021916908373ffffffffffffffffffffffffffffffffffffffff16021790555033600160006101000a81548173ffffffffffffffffffffffffffffffffffffffff021916908373ffffffffffffffffffffffffffffffffffffffff160217905550806002819055505050620001a5565b600080fd5b600073ffffffffffffffffffffffffffffffffffffffff82169050919050565b6000620000eb82620000be565b9050919050565b620000fd81620000de565b81146200010957600080fd5b50565b6000815190506200011d81620000f2565b92915050565b6000819050919050565b620001388162000123565b81146200014457600080fd5b50565b60008151905062000158816200012d565b92915050565b60008060408385031215620001785762000177620000b9565b5b600062000188858286016200010c565b92505060206200019b8582860162000147565b9150509250929050565b61110580620001b56000396000f3fe6080604052600436106100865760003560e01c80638a71bb2d116100595780638a71bb2d1461014c5780638da5cb5b1461017757806394383f14146101a2578063acd25c18146101cb578063cc253a65146101f457610086565b80630c7620351461008b57806351ed8288146100c857806361ba27da146100e45780637c5bb03d1461010d575b600080fd5b34801561009757600080fd5b506100b260048036038101906100ad9190610afb565b61021d565b6040516100bf9190610b69565b60405180910390f35b6100e260048036038101906100dd9190610afb565b610250565b005b3480156100f057600080fd5b5061010b60048036038101906101069190610afb565b61058b565b005b34801561011957600080fd5b50610134600480360381019061012f9190610afb565b610669565b60405161014393929190610b93565b60405180910390f35b34801561015857600080fd5b506101616106c3565b60405161016e9190610bca565b60405180910390f35b34801561018357600080fd5b5061018c6106c9565b6040516101999190610b69565b60405180910390f35b3480156101ae57600080fd5b506101c960048036038101906101c49190610be5565b6106ef565b005b3480156101d757600080fd5b506101f260048036038101906101ed9190610afb565b610911565b005b34801561020057600080fd5b5061021b60048036038101906102169190610c51565b6109da565b005b60046020528060005260406000206000915054906101000a900473ffffffffffffffffffffffffffffffffffffffff1681565b60006003828154811061026657610265610c91565b5b90600052602060002090600302016040518060600160405290816000820160009054906101000a900473ffffffffffffffffffffffffffffffffffffffff1673ffffffffffffffffffffffffffffffffffffffff1673ffffffffffffffffffffffffffffffffffffffff1681526020016001820154815260200160028201548152505090508060400151341015610332576040517f08c379a000000000000000000000000000000000000000000000000000000000815260040161032990610d1d565b60405180910390fd5b806000015173ffffffffffffffffffffffffffffffffffffffff163373ffffffffffffffffffffffffffffffffffffffff1614156103a5576040517f08c379a000000000000000000000000000000000000000000000000000000000815260040161039c90610d89565b60405180910390fd5b60008054906101000a900473ffffffffffffffffffffffffffffffffffffffff1673ffffffffffffffffffffffffffffffffffffffff166342842e0e82600001513384602001516040518463ffffffff1660e01b815260040161040a93929190610da9565b600060405180830381600087803b15801561042457600080fd5b505af1158015610438573d6000803e3d6000fd5b505050506000606460025483604001516104529190610e0f565b61045c9190610e98565b9050816000015173ffffffffffffffffffffffffffffffffffffffff166108fc82846040015161048c9190610ec9565b9081150290604051600060405180830381858888f193505050501580156104b7573d6000803e3d6000fd5b5081602001513373ffffffffffffffffffffffffffffffffffffffff16836000015173ffffffffffffffffffffffffffffffffffffffff167f6de5f61b24e998dfaddeff37d69f266a8355555154081b554c36b2799f0618c885604001516040516105229190610bca565b60405180910390a46003838154811061053e5761053d610c91565b5b9060005260206000209060030201600080820160006101000a81549073ffffffffffffffffffffffffffffffffffffffff0219169055600182016000905560028201600090555050505050565b600160009054906101000a900473ffffffffffffffffffffffffffffffffffffffff1673ffffffffffffffffffffffffffffffffffffffff163373ffffffffffffffffffffffffffffffffffffffff161461061b576040517f08c379a000000000000000000000000000000000000000000000000000000000815260040161061290610f6f565b60405180910390fd5b606481111561065f576040517f08c379a000000000000000000000000000000000000000000000000000000000815260040161065690611001565b60405180910390fd5b8060028190555050565b6003818154811061067957600080fd5b90600052602060002090600302016000915090508060000160009054906101000a900473ffffffffffffffffffffffffffffffffffffffff16908060010154908060020154905083565b60025481565b600160009054906101000a900473ffffffffffffffffffffffffffffffffffffffff1681565b3373ffffffffffffffffffffffffffffffffffffffff1660008054906101000a900473ffffffffffffffffffffffffffffffffffffffff1673ffffffffffffffffffffffffffffffffffffffff16636352211e846040518263ffffffff1660e01b815260040161075f9190610bca565b60206040518083038186803b15801561077757600080fd5b505afa15801561078b573d6000803e3d6000fd5b505050506040513d601f19601f820116820180604052508101906107af9190611036565b73ffffffffffffffffffffffffffffffffffffffff1614610805576040517f08c379a00000000000000000000000000000000000000000000000000000000081526004016107fc906110af565b60405180910390fd5b600360405180606001604052803373ffffffffffffffffffffffffffffffffffffffff16815260200184815260200183815250908060018154018082558091505060019003906000526020600020906003020160009091909190915060008201518160000160006101000a81548173ffffffffffffffffffffffffffffffffffffffff021916908373ffffffffffffffffffffffffffffffffffffffff16021790555060208201518160010155604082015181600201555050813373ffffffffffffffffffffffffffffffffffffffff167f8cb0963b04034c4c13b179fd8bc2a3e07a88cd6b5dd0f6bee0db0bfa04d41441836040516109059190610bca565b60405180910390a35050565b600160009054906101000a900473ffffffffffffffffffffffffffffffffffffffff1673ffffffffffffffffffffffffffffffffffffffff163373ffffffffffffffffffffffffffffffffffffffff16146109a1576040517f08c379a000000000000000000000000000000000000000000000000000000000815260040161099890610f6f565b60405180910390fd5b6004600082815260200190815260200160002060006101000a81549073ffffffffffffffffffffffffffffffffffffffff021916905550565b600160009054906101000a900473ffffffffffffffffffffffffffffffffffffffff1673ffffffffffffffffffffffffffffffffffffffff163373ffffffffffffffffffffffffffffffffffffffff1614610a6a576040517f08c379a0000000000000000000000000000000000000000000000000000000008152600401610a6190610f6f565b60405180910390fd5b806004600084815260200190815260200160002060006101000a81548173ffffffffffffffffffffffffffffffffffffffff021916908373ffffffffffffffffffffffffffffffffffffffff1602179055505050565b600080fd5b6000819050919050565b610ad881610ac5565b8114610ae357600080fd5b50565b600081359050610af581610acf565b92915050565b600060208284031215610b1157610b10610ac0565b5b6000610b1f84828501610ae6565b91505092915050565b600073ffffffffffffffffffffffffffffffffffffffff82169050919050565b6000610b5382610b28565b9050919050565b610b6381610b48565b82525050565b6000602082019050610b7e6000830184610b5a565b92915050565b610b8d81610ac5565b82525050565b6000606082019050610ba86000830186610b5a565b610bb56020830185610b84565b610bc26040830184610b84565b949350505050565b6000602082019050610bdf6000830184610b84565b92915050565b60008060408385031215610bfc57610bfb610ac0565b5b6000610c0a85828601610ae6565b9250506020610c1b85828601610ae6565b9150509250929050565b610c2e81610b48565b8114610c3957600080fd5b50565b600081359050610c4b81610c25565b92915050565b60008060408385031215610c6857610c67610ac0565b5b6000610c7685828601610ae6565b9250506020610c8785828601610c3c565b9150509250929050565b7f4e487b7100000000000000000000000000000000000000000000000000000000600052603260045260246000fd5b600082825260208201905092915050565b7f496e73756666696369656e742066756e64732073656e74000000000000000000600082015250565b6000610d07601783610cc0565b9150610d1282610cd1565b602082019050919050565b60006020820190508181036000830152610d3681610cfa565b9050919050565b7f596f752063616e6e6f742062757920796f7572206f776e204e46540000000000600082015250565b6000610d73601b83610cc0565b9150610d7e82610d3d565b602082019050919050565b60006020820190508181036000830152610da281610d66565b9050919050565b6000606082019050610dbe6000830186610b5a565b610dcb6020830185610b5a565b610dd86040830184610b84565b949350505050565b7f4e487b7100000000000000000000000000000000000000000000000000000000600052601160045260246000fd5b6000610e1a82610ac5565b9150610e2583610ac5565b9250817fffffffffffffffffffffffffffffffffffffffffffffffffffffffffffffffff0483118215151615610e5e57610e5d610de0565b5b828202905092915050565b7f4e487b7100000000000000000000000000000000000000000000000000000000600052601260045260246000fd5b6000610ea382610ac5565b9150610eae83610ac5565b925082610ebe57610ebd610e69565b5b828204905092915050565b6000610ed482610ac5565b9150610edf83610ac5565b925082821015610ef257610ef1610de0565b5b828203905092915050565b7f4f6e6c7920746865206f776e65722063616e2063616c6c20746869732066756e60008201527f6374696f6e000000000000000000000000000000000000000000000000000000602082015250565b6000610f59602583610cc0565b9150610f6482610efd565b604082019050919050565b60006020820190508181036000830152610f8881610f4c565b9050919050565b7f526f79616c74792070657263656e74616765206d757374206265203c3d20313060008201527f3000000000000000000000000000000000000000000000000000000000000000602082015250565b6000610feb602183610cc0565b9150610ff682610f8f565b604082019050919050565b6000602082019050818103600083015261101a81610fde565b9050919050565b60008151905061103081610c25565b92915050565b60006020828403121561104c5761104b610ac0565b5b600061105a84828501611021565b91505092915050565b7f4f6e6c7920746865206f776e65722063616e206c6973742074686973204e4654600082015250565b6000611099602083610cc0565b91506110a482611063565b602082019050919050565b600060208201905081810360008301526110c88161108c565b905091905056fea2646970667358221220ed4b62c24481ed199aa7d4d0421c5437b39fe2b92170c9477f820e31b6d5a38d64736f6c63430008090033",
  "linkReferences": {},
  "deployedLinkReferences": {}
}